S01A00006F7461705F636C69656E745F6174745F424D2E73726563E2
S1130000F81F0020EB0500007506000075060000CF
S113001075060000750600007506000075060000F0
S113002075060000750600007506000075060000E0
S113003075060000750600007506000075060000D0
S113004000000000000000000000000000000000AC
S1130400FFFFFFFFFFFFFFFFFFFFFFFFFEFFFFFFF9
S11304108A480068704700B589488A490860FEE741
S113042001B462B6016881F30888001D00680047C2
S113043001B0704780B5844800680021C9438842F0
S113044002D100F01BF900E0002002BD70B50400E9
S11304500D0016007C4800680021C943884206D17B
S113046032002900200080B200F041F90DE0764806
S113047000682D182000441E80B2002804D028787B
S113048030706D1C761CF5E7002070BDF0B56F4C24
S1130490A544002501276E480390FFF7B9FF6A4978
S11304A0086000F0ABF9FFF7C5FF01AA00210420A2
S11304B0FFF7CCFF002801D0FFF7ADFF644A042109
S11304C02020FFF7C3FF002801D0FFF7A4FF9F20DF
S11304D0800285427BD201985E49884203D3802002
S11304E0C000009001E00198009003980078384221
S11304F059D05948854256D3280000F0EBF900281A
S113050001D0FFF788FF009800284CD004AA2900E6
S11305102431009880B2FFF799FF002801D0FFF73B
S11305207AFF4E48A84235D34C480099691888424E
S113053030D24A48461B320004A9280000F085F94D
S1130540002801D0FFF767FF00200400002C08D129
S1130550FF2002A90855002002A909194870641C4B
S1130560F4E73000801C040004A8005D02A9887030
S1130570641C04A8005D02A9C870361D0098821B83
S113058004A88119A81900F060F900280BD0FFF71E
S113059042FF08E0009A04A9280000F056F9002858
S11305A001D0FFF738FF7F00FFB2002F04D10120F4
S11305B007000398401C03908020C0002D18019868
S11305C0002884D001980099401A01907FE7042202
S11305D002A9224800F039F9002801D0FFF71BFFD7
S11305E0FFF719FF1E488544F0BD80B500210020A7
S11305F000F002F801BD000038B505000C0072B629
S11306001848194908600020184908601348184917
S1130610086017480068007800280BD01448006868
S11306204078002806D10C480F4908600A48FFF7B3
S1130630F7FE01E0FFF72AFF002032BD447C0200F0
S11306400400FA050CED00E0B4000020ECFBFFFF11
S1130650800000200104000000140000C014000009
S1130660140400000000000008ED00E000810440D4
S1130670B000002080B5FFF7CEFE01BD10B584B0F8
S113068002A85B490A680260FA2040010090002039
S113069069468871002069464871002069460871DE
S11306A0002000F063F96946002000F0B3F900F07F
S11306B065F80400E4B2002C02D02000C0B214E0BB
S11306C04C4800688021090301434A48016004231F
S11306D0002202A9002000F0A1F947480068802107
S11306E00903014344480160002004B010BD70B503
S11306F004000D00160000F016F80028FBD12900B4
S1130700032000F056F8A4B2230032000021002098
S113071000F084F938480068802109030143364811
S11307200160002070BD80B500F007F80100C9B277
S1130730C90901204840C0B202BD80B5D72069462E
S113074008802C480068802109030143294801607E
S1130750012300226946002000F060F902236A4662
S11307600021002000F05AF9234800688021090381
S11307700143214801606846008802BD80B580209D
S1130780C00069460880FFF7CEFF002809D06846FC
S11307900088002805D068460088401E6946088005
S11307A0F1E768460088002801D0002000E004201A
S11307B002BD38B505000C00684605702000000C29
S11307C0694648702000000A69468870200069461E
S11307D0C870084800688021090301430548016086
S11307E0042300226946002000F018F931BD0000FE
S11307F0080B000088F00F4084F00F4000B5344A25
S1130800920702D00222100001E000221000802290
S1130810121A1100354A80B21218521C344B1A6055
S113082080B289B2884209D2324A80B21218521E6A
S113083012782E4B80B21A54401CF1E72E4A1268EB
S1130840012313432C4A136000BDF2B582B00700A4
S11308501400029EB807800F002801D0012036E062
S1130860002C33D0002C17D0042C15D20020050006
S1130870A54205D2307869464855761C6D1CF7E7C9
S11308802500042D04D2FF20694648556D1CF8E765
S113089068460600042004003048076006202F49FB
S11308A0C87004200500082D05D230782B4948551E
S11308B0761C6D1CF7E72800C0B200F01FF8002872
S11308C001D0012003E03F1D241FC9E70020FEBD25
S11308D04009000010B504002048046009201F49A5
S11308E0C870042000F00AF810BD000000000020C9
S11308F0AC000020410900003C80044070B50600B3
S1130900174C164D17480078C0B20006FAD570206F
S1130910144908703000461EC0B2002804D028785C
S113092020706D1C641CF5E70F48006880470D4873
S113093000783121084201D0012000E0002070BD80
S113094000B5084800788021014306480170054835
S11309500078C0B20006FAD500BD0000A000002057
S11309600400024000000240AC0000205549096820
S1130970802212010A4353490A60534909688022BC
S113098052010A4350490A6050490968504A0A40D2
S11309904E490A604D490968802292000A434B4936
S11309A00A604C4909684A4A0A404A490A60494966
S11309B00968802292000A4346490A604649096848
S11309C0434A0A4044490A60434909688022920024
S11309D00A4341490A60414909683D4A0A403F497E
S11309E00A603E490968802252000A433B490A6072
S11309F03B490968802212030A4339490A6039498C
S1130A000968802212030A4336490A603649374A84
S1130A1011607047364A374B1A60704738B5040086
S1130A2000206D462870002B01D1002049E00029E8
S1130A3003D1002A01D1012043E02C480068C025DD
S1130A402D010543294805602B4800682B4D0543BB
S1130A50294805601800431E00282FD0002904D01F
S1130A6008786D462870491C02E0FF206D46287006
S1130A7068460078224D28601C4800680125A84378
S1130A801A4D28601C4800680028FBD51A480068E5
S1130A9080252D0605431848056014480068012583
S1130AA0054312480560174800686D462870002AFF
S1130AB0D0D0684600781070521CCBE768460078A6
S1130AC0002032BD388004403C80044040B00440E3
S1130AD0FFF8FFFF44B0044048B004404CB0044069
S1130AE094F00F4084F00F40010E018100C00240D9
S1130AF051447C380CC002402CC0024000000290DB
S10F0B0034C0024038C002403D2A80A6E8
S1131400004000207DEF0100676900007F7100004B
S113141000000000000000000000000000000000C8
S113142000000000000000000000000057780000E9
S113143000000000000000003B7B0000837D0000F2
S1131440F5F20100F5F20100F5F20100F5F20100F8
S1131450F5F20100F5F20100F5F20100F5F20100E8
S1131460F5F20100F5F20100F5F20100F5F20100D8
S1131470F5F20100F5F20100F5F20100F5F20100C8
S1131480F5F20100F5F20100F5F20100F5F20100B8
S1131490F5F20100F5F20100F5F20100F5F20100A8
S11314A0F5F20100F5F20100F5F20100F5F2010098
S11314B0F5F20100F5F20100F5F20100F5F2010088
S10714C0FF00000223
S11314C8017170474C30017070474E30017070479D
S11314D84D3001707047F8B5002822D1A24CC022C3
S11314E800212000203002F029FA250022350026A8
S11314F82E70AE7027006C373E702000203001F04B
S113150854F92034200003F001FB9848E881BE77A1
S11315189748807AC006C00E00D00120A877012021
S1131528F2BD0020F2BD70B505000C00B44E307851
S113153800280AD1FFF7CFFF3470002000F0D0FC58
S1131548B08000202870012070BD002070BD80B5D7
S113155885498A7B002A01D0521E8A73FFF7BBFF94
S113156802BD0100C80605D17F48028D8A4201D117
S1131578203070470020704770B505002888FFF7B1
S1131588F0FF040003D002F06EF9002801D1022014
S113159870BD2079092817D026004E36A878B07275
S11315A8200002F0DDFB05003078012801D0708AA4
S11315B800E0B0880A2242430121200003F078FDAC
S11315C8002D01D109202071002070BD80B508E0EC
S11315D880B50279002A01D1002102E0092A00D14C
S11315E822215822815400F08BF901BD002800D033
S11315F87047F8B55C4C2000203002F034F900281C
S11316084DD025002235A878032802D0052802D019
S11316180CE0042000E00620A870002120342000FB
S113162800F05DFA002001F095FDF1BD27006E374A
S1131638798A287803F087FF387801282FD1002188
S11316482000203002F0CBF92000B430009000686C
S11316580026002812D04288002A0BD002886A8209
S11316684288AA828288EA82C2882A8302896A8393
S11316784189A98304F067FC009806603E70200045
S1131688203002F037F8A878072803D1200020304A
S113169801F0B8FD02212034200001F028FDF1BD3D
S11316A8002800D0704780B56A460021052004F060
S11316B85BFC684601888F4800F0C7FA01BD70B525
S11316C806000D000C2004F050FD040012D00C227A
S11316D8002102F033F90F20208125606660002084
S11316E860812100844804F0BDFD0121834800681D
S11316F804F045FE70BD38B505000C2004F035FD36
S1131708040012D00C22002102F018F90A202081CA
S113171825600020606060812100774804F0A2FD04
S113172801217648006804F02AFE31BD002800D063
S1131738704710B50C4C6D20205C02280DD1002098
S11317486D2160542000203003F04BFA002804D1A6
S113175802212000203001F0CAFC2034200001F0CE
S1131768C9FF03F0BEFA10BD40000020B80B00000A
S1131778CCF3FF1F80B54905490F012907D011D3C0
S113178803290CD007D305290AD008D301BD3E216B
S1131798FFF71CFF01BD0821FFF71AFF01BD22E76F
S11317A800F007F901BD002800D07047F8B5C54C12
S11317B825006E352878012820D127002237A98AE8
S11317C8387803F0B6FE2000203003F00AFA012826
S11317D814D004F0D7FEEA89F97800F0A9FF0600CE
S11317E804F084F8B8480078311889B2203420000D
S11317F804F00EFFA98A387803F09BFEF1BD0000BF
S11318086400002010B504F0A1F80400AC2005F031
S11318184BF8010B02D02000FFF751FF10BDF8B5BB
S113182805000426A94FA74C04F023FA7620205A71
S1131838009000207621605204F022FA2000203023
S113184802F011F8012853D1009880070BD5387895
S1131858304338709E480168080001D00120884749
S11318680020FFF7C3FE0098C0060BD50020FFF741
S113187817FF97480168080004D03878002800D07A
S1131888012088470098800602D50020FFF733FF1F
S11318980098400601D5FFF7B5FF0098000602D569
S11318A80020FFF780FF0098304202D00020FFF7A5
S11318B83DFF280402D5002001F070FC680402D51D
S11318C8002001F078FC0098C00711D53878FB2176
S11318D8014039707E480268100003D0080000D027
S11318E801209047009989B220342000FFF742FF75
S11318F8F1BD000060000020940700208808002043
S1131908F0B583B00400A71C6846F9880180002557
S1131918FD8026005836B878022819D902E00198C3
S113192804F0F5FA200003F0E9F8002807D100AA2A
S1131938921C01A9200003F0C3F80028EFD020006E
S113194803F0CBFBB17B6846008805F0B9F8B573A2
S1131958F06B002802D004F0F6FAF563306C002826
S113196802D004F0F0FA35643178002903D06846CF
S1131978008800F0E5F80021387804F03EFA2000E9
S113198801F0D3FB387803F078FF3878FFF7DFFDF0
S11319980B2003F022F901F0A5FEF7BD10B50400F1
S11319A8FF2103F090FB09202071A07803F026FEA4
S11319B810BD10B50400A079002809D022205821B0
S11319C86054FF21200003F07EFB2000FFF798FFFE
S11319D810BDF2B582B0002100910088FFF7C1FD67
S11319E8040003D001F03FFF002801D10220FEBD0E
S11319F8E0794026304241D127000837797F062212
S1131A080A40022A02D10643E67137E00225480754
S1131A1816D504F075FD0400002020703888608015
S1131A28B888A080387F6070F888E08002980570D4
S1131A382178814805F0C5F9200005F05BF81DE020
S1131A48200001F0FCFE012801D12A20FEBD6846D1
S1131A5804F051FA002801D00720FEBD0099E0796E
S1131A680643E671200002F00CFB787F05437D777E
S1131A787248428A0421200003F01AFB0020FEBDAC
S1131A8870B50C0000281BD10E4D2E008636280098
S1131A98203000F050FA012807D10021B07803F073
S1131AA896FA002801D102F0CAF83078001B307089
S1131AB82800203001F002FB2100288D05F000F8F1
S1131AC870BD00004000002005F4FF1F5F090020DE
S1131AD8F008002080B5011D05F03EFB01BDF8B5F6
S1131AE804000F0004F00CFD05002F7001262000EF
S1131AF803F077F801214140697028000C3004F0A4
S1131B0828F8002C10D0208968804F20205C287188
S1131B18002F11D1607968715C342088E88060886E
S1131B282881A088688107E0182004F0BDFE000A17
S1131B3806402E7100206880280004F05AFFF1BD89
S1131B4880B50A000100002004F0F9FF01BD007807
S1131B58704710B504000800210002F097FF002820
S1131B6802D0200004F0D3F910BDF7B506000C002C
S1131B78A01C8078092804D1300004F0C8F9022098
S1131B88FEBDA078F077200000F0D5F901280BD12C
S1131B98A0780100C84AC023584310188830007838
S1131BA803F015FA012804D0A07800F078FA012887
S1131BB807D16846027A21003000FFF7CAFF0D20DA
S1131BC8FEBD307869460871012568460079062803
S1131BD80AD00B280AD1200003F003F8012805D104
S1131BE800204821605401E048216554200000F099
S1131BF844FA070002AA2100300000F02AFE6B20F4
S1131C0825546846007A0090330068460279390002
S1131C18A07803F031FD03236846027A3900A078DE
S1131C2803F00DFD3900A07803F065F9300004F0E5
S1131C386EF90020FEBD00001D040000CCF3FF1F58
S1131C48002800D1022070477047002900D0418144
S1131C587047F0B585B00300080069469C07A40FD7
S1131C680C73D904C90E6B461980002A5BD103F0A2
S1131C781FFD69464880904C6846008800280CD1AE
S1131C886846408804F010FE010020342000FFF765
S1131C98DCFF002003F03FFE45E0260069363D25C1
S1131CA800276846007B401E01283FD9801E00D0CB
S1131CB886E0029702A804F02CF9002807D03078AF
S1131CC8012830D12034200000F0B7FD2BE0029821
S1131CD8019068460388019A0021408804F0EAFDCF
S1131CE86846408804F0E0FD010020002030FFF73A
S1131CF8ACFF002003F00FFE6A4621002031019852
S1131D0800F039FE0028019807D004F00EF9F573A5
S1131D1820342000FFF742FE05E0C77701992034FC
S1131D28200001F0D7FF012005B0F0BD0297208DF7
S1131D38019002A804F0D1F8002801D00020F3E7AC
S1131D48029F684603883A1D0021408804F0B2FDCA
S1131D586846408804F0A8FD010020002030FFF701
S1131D6874FF002003F0D7FDF07E002803D038006C
S1131D7804F0BFF8CBE76846037B6A4621002031AC
S1131D88380000F03BFE002803D0380004F0B1F816
S1131D98BDE76846007BFFF757FF01993970019941
S1131DA80904090E00010843787068460088B87071
S1131DB868460088000AF8703800FFF78BFEB2E71F
S1131DC83078012803D12034200000F036FD60E784
S1131DD8F8B500270025B74EF079002820D1AC20AB
S1131DE804F062FD000B04E0AC2004F05DFD000B80
S1131DF86D1C002814D0E8B203F05AFC04F054FD1A
S1131E0804000022E9B2FFF724FF0128ECD02A4895
S1131E1884838777C5770121F171203001F04EF969
S1131E28F1BDF0B502000020002401230AE01500EA
S1131E38E5401D40661C1700F7401F40BD4200D016
S1131E48401C641C4D1EAC42F1D3C0B2F0BD10B5A9
S1131E580400A04860402DD00022012393409842FA
S1131E681ED0521C202AF8D300227F202100D14002
S1131E787F230B407F2B13D0014011D0521C192A09
S1131E88F4D3A0B20100220C914203D1000AC9B2D2
S1131E98814205D01F212000FFF7C3FF192801D371
S1131EA8002010BD0621A00EFFF7BBFF02288041C9
S1131EB8C043C00F10BD00004000002010B504004E
S1131EC8F0200001844209DA2000FFF74AFB0028C9
S1131ED804D00089844201D1012010BD002010BD26
S1131EE88C498A79521C9206920E8A7138211140C3
S1131EF8890101435007000E0843704710B56D4C23
S1131F08E079002816D003F083F88248827FC17FE5
S1131F18808BFFF79EFE01280CD10020E07103F0AE
S1131F2815FD0400AC2004F0BFFC010B02D0200016
S1131F38FFF7C5FB10BD6A300078002800D00120E7
S1131F48704770B505006A20285C00282DD1AC1CA8
S1131F58FF20E0776F482178C02251434118893126
S1131F680A78521C0A702178C022514341188931D9
S1131F780A78052A01DB00220A702178C02251431D
S1131F8840188830467806702178300003F01FF82E
S1131F98002807D102206A3528703100207803F020
S1131FA875FE70BD01206A35287070BD38B504000F
S1131FB86A20205C012812D1A1785648C0224A43DD
S1131FC8801888300578280003F001F8002806D125
S1131FD802206A2160542900A07803F057FE31BD1D
S1131FE8F8B505006A20285C002845D0A878009038
S1131FF848480099C02251434618883600993078D9
S113200802F0F9FF012803D103206A352870F1BDD5
S11320183478641CE4B2052C00DB002400206A2117
S11320286854FF2777703770B07000220021009839
S1132038C0B203F03FFEA81CC17FFF2904D02800CA
S113204802F033F9A81CC77701F0F9FD0526002032
S1132058009022006946280001F03DFC0098002801
S113206803D00146280002F0F9FE641CE4B2052CF2
S113207800DB0024761EEAD1F1BD10B50400FFF799
S11320885AFF012807D12348A178C0225143401898
S11320988830007810BDA07802F01EFF10BD00281B
S11320A801D06B2000E0A4480078012800D000206B
S11320B870470000DC07002000E000BF010000209A
S11320C8490704D59D490978022900D101207047A0
S11320D800000000D6BE898E10B50400E0060BD5BA
S11320E896480078022802D1002000F0D5F89448D8
S11320F80068010000D08047A00709D5914801680D
S1132108080005D090480078002800D001208847AE
S113211810BD000040000020FEB5060000206946FE
S11321284872022001F0A6FB002801D00C20FEBD55
S1132138022102A8FFF7F7F9012854D16846007A6A
S1132148002850D1814C25006C3528706870A8701F
S1132158062002F042FD200022300090F089009908
S11321684882B08900998882308A0099C882708A26
S113217800990883F08A00994883B08A0099888373
S11321882000203002F032FA070002AB5B1C012267
S113219839002000203001F0FEF8388A6882B88CB3
S11321A82882788AA882F88CE882A86C03F0CBFE8F
S11321B80020A864288A02F0AAFF6873288A02F01B
S11321C8A8FFE881A01C019007780622B11D200011
S11321D8E03001F08BFB3079012806D10020E8704B
S11321E80420384308E00920FEBD7079E870B01D6A
S11321F803F06AFCFB203840019908700198407884
S1132208317E012902D10421014301E0FB2101406F
S11322180198417000980178300003F057F9203490
S1132228200000F001F8FEBD10B50400A07804F009
S11322380DFA200000F03EF9002010BD70B50E0024
S11322480C24022001F016FB05000020002D10D0FC
S113225800242A890021954805F039F8022128002C
S1132268FFF73DFCA87803F0B7F92800FFF748FB0F
S113227802203070200070BD10B5002033498C4A0C
S1132288FF2313540C182374401C0428F9DB1F2360
S113229813540818037410BDF8B5C74C0026002859
S11322A801D0002501E0250020352979022904D030
S11322B800291AD003F0A2F9F1BD2F004C370121EF
S11322C8F97603F0EFFA03202871082002F085FC60
S11322D83E700121280000F00AFF01214F35280033
S11322E803F04EFCA07B401CA073F1BD38B50088F8
S11322F8FFF737F9040003D001F0B5FA002801D13B
S1132308022032BDE0798025284209D1C10609D5C9
S11323180543E571BB48428A0221200002F0C8FE49
S1132328002032BD200001F0C3F8002802D1E17971
S11323380D43E57132BD0000CB000020640000208D
S1132348F4080020F00800205F0900204000002065
S11323584D300078401E012801D801207047002024
S1132368704738B5040000200090200002F039FCC2
S1132378012827D1200001F076FA002822D001256F
S11323882079C01E012804D9001F02D0801E19D04C
S113239804E0200001F053FA012804D14D20205C08
S11323A800280FD104E0684603F0A5FD002802D0F8
S11323B84D34257031BD0099200001F03EFD022006
S11323C84D34207031BDF1B582B00088FFF7C9F8EB
S11323D8040006D001F047FA002802D02079092821
S11323E801D10220FEBD02278648807A384069461A
S11323F80871200002F0F5FB06000025201DC078B6
S113240820210143201DC170200002F0EFF8009044
S1132418002801D10720FEBD029901F03BF94E20A6
S1132428205C002804D0032823D005282ED03AE0C5
S1132438200001F004FA012804D0200001F00BFA6E
S1132448012805D16846007906431CD1112504E00A
S1132458200001F087F9050009D0201DC078DF218C
S11324680140201DC1702900200001F09CFA2800B9
S1132478FEBD012E17D123220F21200002F096FA67
S1132488009801F0F9F84E342770F0E723220F2161
S1132498200002F08BFA009801F0EEF804212000E5
S11324A801F091F8D7E72325D7E700000E200000B4
S11324B8DC070020F8B5050004F022F8040004F055
S11324C851F8060004F054F8070004F064F869466B
S11324D8487004F057F8694608703804390C084302
S11324E82070010A6170010CA170000EE07059207F
S11324F8285C20716671300AA071300CE0712F00DD
S11325085A37388820723888000A60727888A0722E
S11325187888000AE072B8882073B888000A607363
S1132528F888A073F888000AE073234E0522310066
S113253810312000103001F0D9F90020E87010366D
S11325483100A87803F01CF9002068716846007807
S1132558400169464978084300216175A075000A5D
S1132568E07504E02888798849004018288003F039
S1132578C9FB0422298803F0C8F80128F2D0298865
S11325888020800004F093F91821200003F068FBF0
S1132598F888C000798804F0DBFE81B282208000CC
S11325A804F085F9A87802F0F0FF3989A87802F0D8
S11325B8C0FF02F0FDFFF1BD4000002070B500240B
S11325C80022574DA95C002001E04908401C00295D
S11325D805D0CE0700D5641CE4B2022CF5DB022C2E
S11325E803DA521CD2B2052AECDB022C09DA4D4973
S11325F88A18D37B0121C0B2082800DA8140194324
S1132608D17370BDCCF3FF1FF8B5050046480178B7
S113261804220A430270012001F02CF9040003D1BA
S1132628280002F0EBFFF1BDA71C0320B8702600B8
S11326384C360025F5767D70200000F020F802F075
S1132648D0FE092002F0C9FA387803F040F90121D4
S1132658200000F04CFD35707570B570314CA07BCE
S1132668401CA073022001F005F9050006D0E034EF
S1132678200003F029FA2800FFF7D6FDF1BDF8B5CC
S11326880400A71C401D00902300603322005E3222
S113269821005C31387803F05BFB26005A36F08859
S11326A88000718804F054FE411EB28888B29042BA
S11326B804D2B08089B2387802F05DFF002120008E
S11326C84F3003F05DFA802004F0EEF8308003F018
S11326D859FF3288921C92B2F97800F029F803F075
S11326E80EF903F04FFF7288F97800F021F805001D
S11326F803F0FCF87188B088414389B2387803F054
S11327085CFB0A480078291889B2200003F080FF8E
S11327183189387802F00DFF387802F03DFFF1BDB9
S1132728DC070020400000205F09002005F4FF1F9B
S113273810B5072308A418404000205A0B4059003C
S1132748615A40185043C008642104F004FE00286C
S113275800D1012080B210BDF401FA009600640093
S11327684B0032001E00140038B504000D0002F0BE
S113277838FA012806D100222421200001F098FC0F
S1132788242032BDE87A0102A87A0143A07802F035
S1132798D3FF012807D12820582160542000FFF7CF
S11327A8FDF8282032BD002032BD01002830002267
S11327B842600B0026331A7002605A7048310A705E
S11327C84A70704730B585B0040025009835082252
S11327D829681831684601F089F8082229682031E7
S11327E86846083001F082F81021684603F0ADFB12
S11327F810212868083003F0A8FB30342200296827
S11328080831684604F003FE05B030BD10B5040075
S1132818FFF7CBFF200000F05AFF00204C34207053
S113282810BD816A491C816206D12721415C491C7B
S11328384906490E273001707047C16A491CC162B4
S113284806D12621415C491C4906490E26300170EF
S11328587047F4B58CB007000C004820205C0028B1
S113286839D01678002E01D11F2034E0002520002D
S113287802F0B7F9012800D1012503206946087739
S113288808A80190200044300090230040332A0017
S11328982720215CA06A03F097FE002006900420FC
S11328A80590B819049003972000303002900D2049
S11328B8019008A80090012307AA3100380004F009
S11328C83CFE050001D1361DF6B20C9806702000B6
S11328D8FFF7A7FF28000DB0F0BDFCB58BB00600CC
S11328E80D004820285C002804D02800FFF723FBAB
S11328F8012801D100203CE00B980488002C01D168
S1132908022036E00027280002F06BF9012800D1E4
S1132918012707A801902800443000902B00403379
S11329283A002720295CA86A03F04EFE002006908E
S1132938042005903019001D0490301D03902800D0
S1132948303002900D20019007A8009001230CAAB2
S11329582100301D04F0F1FD070001D1241DA4B2AB
S11329680B990C80B470200AF0702800FFF759FF07
S113297838000DB0F0BDF4B58CB007000C00200091
S11329882C30407F002837D016780025200002F02C
S113299828F9012800D0012503206946087708A8EA
S11329A80190200044300090230040332A00262060
S11329B8215CE06A03F008FE0120069004200590DB
S11329C8B819001F049003972000303002900D209E
S11329D8019008A80090012307AA311F89B2380082
S11329E804F0ABFD050001D1361FF6B20C98067051
S11329F82000FFF722FF28000DB0F0BDFCB58BB016
S1132A0806000C001788FFB220002C30407F0028F5
S1132A1836D00025200002F0E4F8012800D0012572
S1132A2807A80190200044300090230040332A0076
S1132A382620215CE06A03F0C7FD012006900420EB
S1132A480590F0190490301D039020003030029056
S1132A580D20019007A8009001230CAA391F89B200
S1132A68301D04F06AFD050007D1381FC0B20B9968
S1132A7808802000FFF7E1FE01E00B98078028009A
S1132A880DB0F0BD38B50400082102F01CFB10217C
S1132A98200002F018FB251D2878401F012802D9C0
S1132AA8C01E0ED031BD01220021A88804F08FF881
S1132AB807202870200002F094F8012805D1052089
S1132AC804E0A98804F0A0F8F2E70E2021004C31B4
S1132AD8087000250D762000FFF782FA200000F028
S1132AE8F6FD200000F08EFB2000BC30017801299F
S1132AF805D1057021009C31200001F0DBF820008D
S1132B0800F0F8FD31BDFEB504000F00082102F005
S1132B18DAFA1021200002F0D6FA002504202179DF
S1132B28082902D0092904D004E06946087001265E
S1132B3803E009206946087000262000FFF735FEE7
S1132B484C216554684600782071200000F0BFFDD0
S1132B5868460079002E20D1012805D100223900C9
S1132B68201D808804F033F821004C310D76684626
S1132B78007A01281BD02000FFF732FA2000BC306D
S1132B880178012905D1057021009C31200001F04C
S1132B9891F8200000F0AEFDF7BD012804D1201DF6
S1132BA88188380004F030F820004C300576200085
S1132BB84C300773200001F0D3F80500B948428A65
S1132BC80121200002F074FA002DE5D109202071BA
S1132BD8F7BD10B5040002F004F8012809D1082152
S1132BE8200002F070FA002301221A212000FFF7C6
S1132BF88AFF10BD38B504000D0001F0F2FF01286A
S1132C0809D10821200002F05EFA002301222900DC
S1132C182000FFF778FF31BD38B504002079032878
S1132C2804D004280BD007280BD006E00525012181
S1132C38200000F063F8002809D00D2032BD0625D5
S1132C48F5E70825200000F0B1F80028F5D12000A8
S1132C5800F034FA2571002032BDF8B505000027CC
S1132C682888FEF77EFC040018D001F0BAFF00287B
S1132C7801D10C20F2BD8B48807AC00701D4112001
S1132C88F2BD200000F0EFFD002807D02079C01E17
S1132C98012805D9001F03D0801E05D10220F2BDEA
S1132CA84C20205C012801D10D20F2BD200000F049
S1132CB8FEFC060001D10720F2BD0822291D00F000
S1132CC815FE30002830698801706988090A417046
S1132CD810220C3529000836300000F007FE2000C9
S1132CE84C308078002803D001204C34207003E055
S1132CF82000FFF791FF07003800F2BDF8B5040083
S1132D080D0000200090684603F0F5F8002801D073
S1132D180D20F2BD009E2000403004F012FE270072
S1132D284C37F86C183004F00CFEF86C1C3004F0C6
S1132D3808FE012D02D12000FFF703F9310020001D
S1132D4801F03AFB5748428A0821200002F0B0F902
S1132D58022038700020F2BD10B50400FFF732FDE0
S1132D6803204C216054200000F0A8F910BD10B5D0
S1132D7882B0040000200090684603F0BCF80028E4
S1132D880FD10099200001F0C5FA4648428A08216B
S1132D98200002F08DF904204C216054200000F03A
S1132DA88DF913BD80B5FFF76DFE01BD38B504007C
S1132DB800200090684603F09EF8002801D00D20FA
S1132DC832BD009D2000FFF7BCF82900200001F067
S1132DD83FFB3448428A0821200002F069F90620A2
S1132DE84C342070002032BD38B504000020009017
S1132DF8684603F080F8002810D1009D2000FFF7F2
S1132E08D4FC2900200001F08AFA8948428A082162
S1132E18200002F04DF907204C34207031BD80B5F4
S1132E280021FFF76BFF01BDF8B504000D00002079
S1132E380090684603F05FF8002801D00D20F2BD29
S1132E48009E27004C37F86C203004F07AFDF86CAB
S1132E58243004F076FD2000443004F072FD002D87
S1132E6802D12000FFF76DF83100200001F000FBCB
S1132E780C48428A0821200002F01AF9200000F0C8
S1132E88ADF8002807D0200000F022F8002807D069
S1132E980920387004E008203870200000F00EF98A
S1132EA80020F2BDCCF3FF1F80B54C21415C0829FA
S1132EB804D00CD30A2908D004D301BD0B214C300B
S1132EC8017001BD00F004F801BD00F095F801BDE2
S1132ED870B5040026004C362079401F012802D919
S1132EE8C01E0ED020E003220621200001F0E0F8E5
S1132EF84F48428A0821200002F0DAF81120307085
S1132F0810E006203073200000F02AFF0500B08A84
S1132F180A2242430121200002F0CAF8002D01D1FF
S1132F2809202071002070BD0C2070BD10B504006C
S1132F3801F057FE012809D04C20205C112805D146
S1132F480023002206212000FFF7DDFD10BD10B587
S1132F5882B0040000200090684602F0CCFF0028EC
S1132F680CD10099200001F0D5F93148428A082192
S1132F78200002F09DF80D204C34207013BD80B55C
S1132F88FFF780FD01BD70B582B0040000250095EF
S1132F98684602F0B0FF002801D00D2076BD009EDF
S1132FA8200000F084FB082020712000FEF7C9FFF0
S1132FB83100200001F0B3F92000493005700F21D9
S1132FC8C170200000F07AF8002076BD10B5040026
S1132FD8FFF7EBFB10204C34207010BD10B5040033
S1132FE803F08EFA218901809834216841602831E0
S1132FF8816003F0BCFD10BD10B582B00400002050
S11330080090684602F077FF002801D00D2016BD15
S11330180099200001F041FA0548428A082120005D
S113302802F046F80C204C342070002016BD000035
S1133038CCF3FF1F70B505002888FEF792FA040048
S113304801D1022070BD26004C363078082801D002
S11330580B2817D11022A91CF06C083000F046FC8C
S11330682000FFF7AFFB3078082804D02000FFF7D2
S1133078C3FF002801D00A203070200000F01EF899
S1133088002070BD0C2070BD10B50088FEF769FAE9
S1133098040001D1022010BD4C20205C082801D076
S11330A80B2809D12000FFF713FF002802D00920BC
S11330B84C342070002010BD0C2010BD20B5002118
S11330C8020066321579002D03D11278002A00D047
S11330D80121844AD279002A00D00021801C8278F8
S11330E8092A00D10121007802F01BFC20BD38B563
S11330F805000C0001F075FD00280CD1022C10DB32
S113310828004D304178002905D10078022802D0E2
S11331182879092801D1012403E0280000F00FF8D8
S11331280400200002F035FE31BD80B503F02AFA10
S113313802220021FFF7FCFA02F0E1FB01BD80B591
S1133148807804F0AAFC002800D00120C0B202BD97
S11331587047704710B582B000240094002800D14D
S1133168614C684602F0C7FE002816D10099200079
S113317800F087FF2520205C0221014325202154EB
S1133188C948428A0421200001F092FF200000F07F
S11331988FF902212000FFF7AAFF13BD002800D0F1
S11331A8704780B5C1482421415C072902D12030E9
S11331B800F00AF801BD002800D0704780B5BB486C
S11331C8008D03F07FFD01BD10B582B0040000201E
S11331D80090A079002814D14C20205C052801D047
S11331E80E280ED1684602F086FE002809D10099FF
S11331F8200001F0C8F9AC48428A1021200001F0EF
S113320857FF13BD0200801CC189002900D17047F3
S113321810B5A54B9B7ADB0613D55C3253885B1C2F
S1133228128853439BB25C03240C00D10124DA03B3
S1133238120C01E0121B92B28A42FBDA007802F007
S1133248FBFD10BD38B50D00002129700088FEF77C
S113325888F9040003D000F006FB002801D10220FD
S113326832BD9148807AC00601D4112032BD0220B3
S11332782870228A0021208903F0E0FC002032BD56
S113328870B504000E002088FEF76BF9050003D022
S113329800F0E9FA002801D1022070BD8248807A42
S11332A8C00601D4112070BD618828005C304288B2
S11332B8521C008842431004C00C814201D21220DF
S11332C870BD2C1DA1812078072802D12800FFF7A2
S11332D899FF022030700021A08803F0D3FC00205D
S11332E870BD0000DC0700206000002038B5050030
S11332F8002008702888FEF734F9040001D1022060
S113330832BD4E20205C052801D0072817D12000A3
S113331801F06CF969884180A9880180E988818075
S11333282989C18069894181A9890181200001F025
S113333858FC002805D1200000F069F904E00C20AD
S113334832BD200000F0F3F8002803D0010020006B
S113335800F029FB002032BD70B50400002008707D
S11333682088FEF7FEF8050001D1022070BD4E202A
S1133378285C052801D007280BD1A2780F21280042
S113338801F014FB0600A178280000F00CFB3000C3
S113339870BD0C2070BDF4B584B005000C00D44E8B
S11333A8608D002807D120866086A686E686268753
S11333B86687A687E6876188A81C00290AD06A461A
S11333C8D1802788A188918061899181218951813F
S11333D8E1881FE0818A00290AD06A46D180478A99
S11333E8C18A9180818B9181418B5181018B11E03C
S11333F8290054310F896946CF80290054314989FD
S11334086A46918029005431C989918151812900E2
S113341854318989118100780090684683883A007C
S1133428C188208E03F0F6F9A082218D0091638D66
S1133438020039006846C08803F05CF9A081000CDA
S1133448E0816846027CA189E08903F076F90300EB
S1133458A384684642898189007C03F078F9E08472
S11334686846808803F090F920826846008903F052
S11334788CF96082280000F0F6F9012811D128009F
S113348803F084F9E082A18E0091638E54352A8872
S1133498A18C03F088F920836683A683E6832684B7
S11334A8668405B0F0BD0000CCF3FF1F4000002087
S11334B870B582B0040000200090C24D200001F0D5
S11334C890FB00280FD10821A87A084201D11120C5
S11334D876BD2000203042790A4204D000780842A0
S11334E801D11A2076BD200000F0A9F9012801D1E4
S11334F82A2076BD684602F0FEFC002801D0072089
S113350876BD009E200001F06CFB002804D1310038
S1133518200001F0DBF903E03100200000F0B8FCE2
S11335286A8A0221200001F0C3FD002076BDF0B5AF
S113353883B00500002001906946087094202E5835
S113354801A802F0D8FC002801D00720FEBD019F85
S11335582021280001F0B7FD2C004E34608AA08099
S1133568208A6080E089E0806B46012231002800CF
S1133578FFF711FFB08CE189884207D1308A218A8C
S1133588884203D1708A618A884203D0E87920216D
S11335980143E971708A6082308A2082B08CE081AC
S11335A8F08CA082E08901F0B4FDA081E08901F0EB
S11335B8AEFDE0723900280000F0F7FB012020700E
S11335C868460078FEBDF0B583B004000D00002005
S11335D8009094202758684602F08DFC002801D0FA
S11335E80720FEBD009E01AB012239002000FFF731
S11335F8D2FE3100200001F04DF87248428A2021A1
S1133608200001F055FD4E3425700020FEBD30B574
S113361883B0040000200090684602F06CFC002887
S113362801D007203EBD009D01AB01229420215802
S11336382000FFF7B0FE2900200001F006F96148D8
S1133648428A2021200001F033FD08204E342070E6
S113365800203EBD38B505000C0002F051FF298951
S11336684180618D8180218DC180A18D0181E18D91
S1133678418103F040FB32BD0021018541858185EC
S1133688C18501864186704700210180418081817E
S1133698C18170478A8802804A884280CA888280A9
S11336A80A89C2808A89028149894181704710B593
S11336B882B0040098342068002806D1684602F0D5
S11336C836FC002801D100982060206816BD10B58A
S11336D8040098342068002803D002F034FC002049
S11336E8206010BD80B5684800F004F8002002BDD1
S11336F8FFFF000038B5040025004C3500F09FF8A2
S113370801281ED0200000F0A6F8012819D0A878B6
S1133718022805D009280CD12520205C000708D5EB
S1133728200000F01FF800281AD00100200000F043
S11337383AF9A878032804D1200000F045F80028B5
S11337480ED0A878002805D12878012802D12000B5
S1133758FFF762FA6878012802D12000FEF701FE1B
S1133768002032BD10B5040001F03BFA02221549CD
S1133778897A114203D1012814D0112010BD2100E7
S113378820314B791B0708D42000FFF791FE00284D
S113379816D109214E34217010BD0978114207D180
S11337A8012803D12000FFF7C2FE10BD1A2010BD66
S11337B8012801D1042100E006212000FFF703FFBE
S11337C810BD0000CCF3FF1FF8B50600002400F07C
S11337D80DFF0090002801D10720F2BD01463000FA
S11337E800F03BF90700300001F0FBF900280ED186
S11337F8012F0AD13000FFF70AFF040003D021008B
S1133808300000F0D0F82000F2BD072506E0012FB3
S113381803D13000FFF78BFEEFE70525002FF2D127
S113382800993000FFF716FF040005D01A220F2173
S1133838300001F0BBF8E0E74E363570E3E74C3072
S11338480078012803D9401F01D0093801D100208C
S11338587047012070474D300078022801D10120BB
S11338687047002070470079022801D8002070476B
S113387801207047010005482422825C914201D14D
S1133888203070470020704760000020400000206E
S113389810B50120FFF7EEFF040003D000214F30DC
S11338A802F06EF93C212000FEF719F9002C02D031
S11338B8A078FDF74CFE10BD80B50120FFF7DAFFB4
S11338C8002802D08078FDF742FE01BD92008018DE
S11338D880300160704700230B60052A05DA9200E6
S11338E88018803002680A600360704700B5002AB7
S11338F805D00B780370401C491C521EF7E700BD25
S113390800B5002A09D08018401E002A05D00B787B
S11339180370401E491C521EF7E700BD10B5030092
S1133928002A09D018780C78A04201D0002004E0BD
S1133938491C5B1C521EF3E7012010BD00B5002A88
S113394802D0521E8154FAE700BD70B50400206805
S113395806003078802101433170206806003078F1
S1133968000607D4206A0021C9438842F7D0206A98
S11339788047F4E7206806003078312101400D00C3
S1133988280070BD70B504000D001600E0794006EB
S1133998400EE07102F0B4FD057021894180866013
S11339A802F0FAFF70BD70B505000C00202101F08B
S11339B88AFB2E0094363068002803D002F0C3FA3C
S11339C8002030602100280000F009F800212800B8
S11339D8FDF77BFD2800FFF78DFE002070BD38B58C
S11339E805000C00E879810610D5DF210140E97152
S11339F802F086FD0470298941805C35298881801C
S1133A086988C180A988018103F02EF831BD10B5F9
S1133A1804004E23E35C1B1F05D09B1E19D05B1EBC
S1133A28012B11D917E0072A01D01A290AD120211C
S1133A3801F049FB2000FFF77AFD00280BD00100B4
S1133A48200006E03B2904D0232902D1FFF7C7FF51
S1133A5801E0FFF7A8FF002010BDF0B500220B8D90
S1133A684C8D9C420ED105005C352E88A64209D1A6
S1133A786E888F8DBE4205D1AD88CE8DB54201D1F9
S1133A880120F0BD4E88002E0AD0B4421AD308880B
S1133A98984217D388888B8D984213D1C8880DE033
S1133AA814304688002E0DD0B4420BD304889C42AF
S1133AB808D383888C8DA34204D1C088C98D8842D9
S1133AC800D101221000F0BD10B504000121A07836
S1133AD801F027FF01212000FFF709FB10BD38B5CD
S1133AE804001500E278501E8041C00FE0700A00FF
S1133AF8E178A07801F06FFE2900A07801F05AFE61
S1133B0831BDF8B504000F001600250052352A8986
S1133B18E979A07801F021FD002E08D102F032FDE8
S1133B282A89A11CC978FEF703FE01F0E8FE2B8858
S1133B38E889834200D20300AA896989A07801F040
S1133B48DAFCE889C000698903F002FC81B2ED203F
S1133B58800002F0ACFE28882989C90841180A3176
S1133B6889B2CA48814200DB411EA07801F0EBFC0F
S1133B783900A07801F06FFE01212000FFF7B7FAA1
S1133B88F1BD000038B50C00002819D1D74D280024
S1133B988A30002141700078032803D1280020309E
S1133BA8FEF71EFA2800203000F034F8142C05DA49
S1133BB82035280003A1A20089588847FFF792FD01
S1133BC831BD0000F93E0000FB3E0000F342000056
S1133BD8634400007F450000874500007B430000E4
S1133BE811430000FD3E00008940000065440000C8
S1133BF89B430000134300001543000011430000D9
S1133C0811430000114300008D4A000011430000D5
S1133C181143000010B50400FEF78DF901280BD1FB
S1133C28A0780100B14AC02358431018883000789E
S1133C3801F0CDF9012801D000F001F810BD30B52C
S1133C4883B0AA4C2000203000F058FF002830D15F
S1133C588B20205C00282CD101AA69462000203042
S1133C6800F02EFF002824D100980578002D05D1F6
S1133C7801462000203000F098F80EE0012D05D10F
S1133C8801462034200000F0D8F837BD6846027990
S1133C98210020310098FDF768FF022D09D1012188
S1133CA82220205C01F03DFE092120342000FDF78C
S1133CB807FC37BD38B505000C002000FDF747FFA9
S1133CC802002100280000BF11A392009A589047CF
S1133CD831BD000070B504000E003000FDF737FF59
S1133CE805002000FFF7BFFD00280DD0142D04DBCC
S1133CF83100200000F0E9FA06E03100200000BF9E
S1133D0803A2AB00D2589047300002F00EF970BD00
S1133D181F3F0000C33F000003410000AD44000002
S1133D2811440000474400003D4300004F41000097
S1133D3827400000AD3E00006945000059430000DB
S1133D48B5410000A94200000D4900009D4700004C
S1133D5867480000F9490000B1450000EB45000040
S1133D6838B5050000200090684602F0C4F8002821
S1133D7801D01F2032BD009C022020705820285CEE
S1133D886070A878E0772800FFF79EFE02222900D9
S1133D982000FDF7EAFE32BD80B5030008000721C4
S1133DA801709978C1770222BFE2F0B583B00500AB
S1133DB80C0094202F58A87801F0DAFC2E005A360B
S1133DC8009601AB3A000100280002F02DFDA87806
S1133DD801F0CEFC6946898801F08EFC0020207031
S1133DE85920285C60703088A0703088000AE07020
S1133DF8708820717088000A6071B088A071B088DA
S1133E08000AE071F0882072F088000A607268463F
S1133E188088A07268468088000AE0720C22290013
S1133E282000FDF7A2FE040005D10122684681881E
S1133E382800FFF766FE2000FEBDF8B506000D0059
S1133E4801202870294C052221001031681CFFF735
S1133E584DFD5E20315A491C0A20414389B2B0788D
S1133E6801F079FC0700A871000AE8710822310002
S1133E782800FDF77AFE050005D13A001034210028
S1133E883000FFF72CFE2800F2BD0000810C000072
S1133E9838B505000C00E87910210143E9710820C0
S1133EA800F01CFD70B504000E00804D6A8A0221E2
S1133EB801F0FEF80221200001F005F9E01DA97ABD
S1133EC872780A40D106C90E4176817F08220A43D6
S1133ED882770178EF220A400270721C00212000C8
S1133EE8FFF750FD2000FFF705FC70BD40000020DF
S1133EF870477047704738B505000C0009202070DA
S1133F0808220021601CFFF719FD2020285C60703E
S1133F18664800F0EEFC70B505000C00FEF724FCC2
S1133F28002849D12021280001F0CDF82E0052366E
S1133F386078F071E07800023081A178084330811C
S1133F48607901022079014320207289914203D0CB
S1133F58EA790243EA717181E1790902A27911438C
S1133F68B289914203D0EA790243EA71B181617A54
S1133F780902227A1143F2893280F289914203D0EC
S1133F88EA791043E871F181F0898000718903F0BE
S1133F98DFF9401EB18980B2884200D90800B08197
S1133FA801212800FDF791FA0022E07A0102A07AA3
S1133FB801432800FFF7A5FD70BD70B504000D008E
S1133FC800F00FFE012805D101222421200000F071
S1133FD86FF870BDA01C8178042901D007291DD170
S1133FE8E9790E02A9790E433100007801F0A4FBA7
S1133FF8012806D12820582160542000FDF7CEFC62
S113400870BD3200691C2000FFF769FD0221200001
S1134018FDF75EFA01212000FFF769F870BD70B55D
S113402882B004000D0000200090261D307804287A
S113403801D0072823D1200000F0D3FD012805D1A1
S113404808222421200000F033F873BD684601F0EB
S113405852FF002813D100991448807A6A780240E4
S1134068D006C00E30772520205C08220243252084
S113407822542000FFF73FFF2000FFF73BFB73BDEE
S1134088704710B50B0009490A880C241C700C7978
S11340985C709A70120ADA70C9881971090A597120
S11340A806220100180000F09FFC0000CCF3FF1F5B
S11340B870B582B004000D00160000200090684618
S11340C801F019FF002801D0072076BD00982100CF
S11340D820314A79120707D50978490704D52B00F6
S11340E83200010000F073FC0D21017045700222BA
S11340F82100FDF73AFD002076BD70B505000E00DD
S1134108AC1CA078401F012801D9C01E02D1280088
S1134118FEF77CFB70785821685409212800FDF7C4
S1134128CFF92800FFF7D0FC280000F05AFD012839
S1134138207802D101F06FFA01E001F05FFA28005B
S1134148FEF7BCFF70BD70B504000D006878032845
S113415802D12000FEF73DFD6878122803D1102112
S1134168200000F0B0FF68780E2814D10221200046
S113417800F0A9FFE61D3078EF21014031700022DC
S11341881A212000FFF7FEFBB07F08210143B17715
S11341982000FFF7AFFA68780F2801D0102804D15F
S11341A82A781A212000FFF732FC70BDF2B582B0DC
S11341B804000027009725004C353D2600F011FD2A
S11341C8002808D12000FFF73AFB012803D12E73F9
S11341D82000FDF7E3FB200000F003FD01280BD1CC
S11341E82000FFF72CFB012806D12878032803D1E7
S11341F82E732000FDF7D2FB0421200000F063FF9A
S1134208250008350298407828770298C07800027B
S1134218A880029989780843A88002984079000206
S1134228E880029909790843E880687F04210143FA
S113423869772000FFF703FB012809D1202202999E
S113424820009C30FFF752FB0120BC342070F7BDDE
S11342580226687F30420BD1684601F04CFE0028E4
S11342681DD100992000FFF70CFF687F06436E7785
S1134278E079410610D5BF210140E17102F040F90F
S11342880090077029884180A9888180297F41701E
S1134298E988C18002F02EFC2000FFF72BFAF7BD55
S11342A880B54978FEF7A6FC01BD38B505000C00B9
S11342B800200090684601F01EFE002804D10099F1
S11342C84C702800FFF768FD31BD38B505000C00B7
S11342D8FDF731FE002804D121782800FFF7E5FF17
S11342E831BD20782135287031BD10B50400FF2177
S11342F800F0E9FE162058216054A07801F07EF9F8
S11343082000FEF7DBFE10BD7047704780B5FEF74E
S11343180DFE01BD80B503000800062103E080B549
S1134328030008000B21017001221900FDF71DFC90
S1134338002002BD80B54C21415C042902D00C291F
S113434803D001BDFEF72EFD01BDFEF700FE01BD41
S113435810B504004C342178062902D00F2905D061
S113436810BDFEF741FD0120207610BDFEF72EFE9C
S113437810BD38B504002500493500F032FC012889
S113438800D12870E8780D2802D12000FEF7F7FD47
S113439831BD38B505002C004934E078072805D12B
S11343A82800FEF702FA2800FEF739FDE0780F2806
S11343B801D10020207031BD70B505000C00032028
S11343C820702E00983608223168601CFFF78EFA98
S11343D802223168283120000930FFF787FA0822C1
S11343E83168183120000B30FFF780FA04222900C5
S11343F8403120001330FFF779FA172229002000F2
S1134408FDF7B3FB002070BD70B505000C002E004D
S11344184C363078022811D10822491CF06C20301F
S1134428FFF764FA04220934210028004430FFF716
S11344385DFA2800FEF790FC0120307670BD4C210F
S1134448415C032900D0704780B5FEF790FC01BD9C
S113445880B5030008000A2165E7704710B5040019
S113446800F0BFFB012802D100204834207010BDA1
S113447838B505000C00042020700822982029581B
S11344882031601CFFF732FA04222900443120004D
S11344980930FFF72BFA0D222EE280B5030008003D
S11344A8052140E7F8B504000E0000F09AFB012846
S11344B855D09448807AC00701D41A210EE0012708
S11344C84C20205C002802D0102816D017E00025C4
S11344D82000FFF7ECF8002813D10721032220005D
S11344E8FFF7E6FD8748428A0821200000F0E0FD36
S11344F811212000FCF7E6FFF1BD0125E8E71F21A3
S1134508ECE70822711C20004C30C06CFFF7EEF970
S113451802223100093120004C30C06C2830FFF7EA
S1134528E5F9082231000B3120004C30C06C1830FA
S1134538FFF7DCF904221336310020004030FFF77E
S1134548D5F929002000FEF76FFC002807D1002DBB
S113455803D106212000FCF7B3FF4C342776F1BDC4
S113456810B504004C3421780E2903D1FEF70BFD55
S11345780120207610BD80B5FEF796FC01BD01210F
S113458849300170704780B503000800122103E028
S113459880B503000800132101709978C1770122BE
S11345A81900FDF7E2FA02BD38B505000C00002039
S11345B800905448807AC00604D52800FFF73FF9D4
S11345C8012804D121002800FFF77FFE31BD684689
S11345D801F091FC002803D100992800FFF7D8FFC7
S11345E831BD80B5102100F06EFD01BD10B582B05B
S11345F8040094344E30007800280DD12068002837
S11346080AD1684601F093FC002805D1009820607F
S11346180021C18141854180206816BD943000681D
S1134628C2894A70C289120A8A708289CA708289C8
S1134638120A0A71028A4A71028A120A8A71428A21
S1134648CA71428A120A0A72828A4A72C28A8A72AF
S1134658C28A120ACA72028B0A73028B120A4A733A
S1134668428B8A73428B120ACA73828B0A74828BB6
S1134678120A4A74C28B8A74C28B120ACA74028CD4
S11346880A75028C120A4A75428C8A75408C000A93
S1134698C875704738B505000C000F202070280035
S11346A8FFF7BCFF182227E150B5418D028D8A42DD
S11346B823D3062921DB1100B94B99421DDAC38D96
S11346C80A3BB84CA34218D2838DFA246400A3424F
S11346D813DA038E9A4210D3343000220623B24EE2
S11346E80488B44205D0A24200DA2200801C5B1E72
S11346F8F6D1002A03D0914201DA1E2050BD0020D1
S113470850BD0000CCF3FF1F8878000250854B7819
S113471818435085087900021085CB781843108512
S11347288879000290854B7918439085087A0002AD
S1134738D085CB791843D085487A1086C87A000288
S113474850868B7A18435086487B000290860B7BF0
S113475818439086C87B0002D0868B7B1843D0868A
S1134768487C000210870B7C18431087C87C000221
S113477850878B7C18435087487D000290870B7DB7
S113478818439087C87D0002D087897D0843D08765
S11347980020704770B504000E00B948807A80077D
S11347A800D48BE02000FFF756F8012801D12A2213
S11347B816E04E20205C00280CD0022803D00628DE
S11347C808D0092804D1200000F00BFA002801D0F1
S11347D8232205E02000FFF709FF050002D1072284
S11347E80F216FE02A0031002000FFF78DFF280019
S11347F8FFF75AFF002809D01E220F21200000F0DD
S1134808D5F81E212000FFF7CEF870BD4E20205C9D
S1134818022803D0062801D0092802D12800FEF76F
S113482833FF2000FFF70BF801280AD14E20205C43
S1134838002801D0022804D103212000FCF745FEFA
S113484870BD2000FEF7C0FF70BD38B505000C0030
S1134858102020702800FFF7E1FE18224CE070B504
S113486804000E008648807A800700D426E04E2093
S1134878205C042802D02422102123E02000FFF722
S1134888B5FE050019D02A0031002000FFF73CFFCF
S11348982800FFF709FF002806D01E221021200057
S11348A800F084F81E2105E02000FEF740FE0028F1
S11348B803D001002000FFF776F870BD2000FFF751
S11348C804FD70BD200000F071F870BD38B5050016
S11348D80C00E87910210143E9710E2020700822A8
S11348E80021601CFFF72AF86548817AC906C90EB9
S11348F86170C07AA070092229002000FDF735F9FB
S1134908002032BDF8B504000F0000200090207983
S1134918001F042843D82000FEF791FF012809D17D
S11349282022390020009C30FEF7E0FF0120BC342F
S11349382070F1BD0825524EB07A284204D13900BE
S11349482000FFF7C2FCF1BD200000F04AF900285E
S113495805D10E2224212000FFF7AAFBF1BD6846E9
S113496801F0C9FA00281AD10099B07A284205D171
S1134978387848702000FFF70FFAF1BD7A780240C2
S1134988D006C00E221D10772520205C0543252063
S113499825542000FFF7AFFA2000FEF7ABFEF1BD67
S11349A8810C0000770C0000FFFF000070B582B096
S11349B804000D00160000200090684601F09BFAE0
S11349C8002801D0072076BD33002A000099200072
S11349D800F001F876BD10B504000800112101703B
S11349E84270837003222100FDF7BFF8002010BD38
S11349F870B582B005000C002148807A40070DD4B8
S1134A0800200090684601F076FA002836D1009913
S1134A18207848702800FFF7BFF973BD6078032831
S1134A2803D1A1782800FEF7E5F86078122803D1AD
S1134A381021280000F047FB60780E2814D10221C9
S1134A48280000F040FBEE1D3078EF210140317062
S1134A580022A1782800FEF795FFB07F08210143C2
S1134A68B1772800FEF746FE60780F2801D0102899
S1134A7804D12278A1782800FEF7C9FF73BD00008D
S1134A88CCF3FF1F80B5FEF751FA01BD10B5030042
S1134A987C331C78042C01DBFF2010BD5C78A40057
S1134AA80019C166CA771878401C18705878401CD9
S1134AB85870C0B2042801DB00205870002010BDD3
S1134AC830B5002304007C342578002D14D0A57853
S1134AD8AD004519ED6E0D60E97F11708078E877B7
S1134AE82078401E2070A078401CA070C0B2042812
S1134AF800DBA370002030BDFF2030BD7C3000787F
S1134B08002801D000207047FF2070477C30002126
S1134B18017041708170704720B5002503F027F9B2
S1134B28012800D1012503F033FA012802D1280015
S1134B3802250543A4482421415C00290BD00229FD
S1134B4803D005D22900012504E02900042501E049
S1134B58290008250D43457020BD80B59B4801F008
S1134B68D1FC00F046FB03F019FA00F002F800202B
S1134B7802BD70B5944C00256570012020736573DF
S1134B8865716576658365756580A571E573904E75
S1134B9870723F207071DB20B07103F005F803F0E8
S1134BA80AF9FDF769FB0020FCF795FC3572F571ED
S1134BB8A57370BD80B503F0FDF900F002F800207C
S1134BC802BD80B5C3480078002801D100F011FB6C
S1134BD8FFF7CFFF03F0E4F901BD80B5FFF79CFFB1
S1134BE801BD67300078002800D00120704710B557
S1134BF80400207861780143A0780843E1780143F0
S1134C08207908436179014301D1122010BD01F0D4
S1134C1855FC002801D00C2010BD200000F06AFFCC
S1134C28002010BDBB480078704780B56A46BA4971
S1134C38082001F099F969460020085602BD80B59C
S1134C4801F04DFC002801D00C2002BD00F08CFEC0
S1134C58002002BD38B50500002401F040FC0028FE
S1134C6801D00C2032BD691C287800F0BFFEFF2853
S1134C780AD100F013FFFF2804D06A1C297800F039
S1134C887FFE02E0072400E01F24200032BD38B56F
S1134C980400002501F023FC002801D00C2032BDBB
S1134CA8611C207800F0A2FEFF2802D000F097FED5
S1134CB800E01F25280032BD10B5434CE07B0006F8
S1134CC80DD520002030FDF743FB012807D0E07BF9
S1134CD84006400EE07320342000FDF742FB00201C
S1134CE810BD80B538486D21415C012902D12030BE
S1134CF8FDF737FBFFF7E0FF01BD0020704738B52B
S1134D0804000D00102101F020F9102120001030BA
S1134D1801F01BF92200103221002000103002F0AB
S1134D2876FB10212000103001F00FF902202870C2
S1134D38200003F093F932BD80B5007800F053FFEA
S1134D48022006E080B502788178407800F029FFD7
S1134D5801201D498876002002BD10B50C0000F022
S1134D685CFF0021184A937E012B00D10020917624
S1134D780221217003F0BDF9002010BD10B50C000C
S1134D88FCF7EFFB002802D00179002901D10220A9
S1134D9810BD2200C178807800F03EFD002010BDCF
S1134DA810B50C00FCF7DDFB002803D0FEF75BFD13
S1134DB8002801D1022010BD2200BC49082001F0BE
S1134DC8D3F8002010BD000040000020D8F3FF1FD6
S1134DD8DC07002038B50D00FCF7C3FB040003D042
S1134DE8FEF741FD002801D1022032BD6A462100A8
S1134DF80A31042001F0B8F82A000A3421000620F8
S1134E0801F0B2F8002032BD70B504006078810664
S1134E188D0FE1780E02A1780E4300022178084331
S1134E280005000DFCF79DFB00280FD0022D0DD0C6
S1134E38032D0BD0002E04D10021008901F040FE7F
S1134E4804E00179092901D0002903D1200001F0E7
S1134E5842F870BD210000F001F870BDF8B50400F7
S1134E680E00A71CB878092818D0002816D0662088
S1134E78205C401C662160542000FEF71FF9387836
S1134E8800F02AF805002A003100200000F046F856
S1134E98002806D12900387800F02DF8300001F0F8
S1134EA81AF8F1BD38B59C4D052201002800FEF71B
S1134EB81DFD9A4C0522290020001030FEF716FD2E
S1134EC8FDF77CFBE07B80210143E173FFF7F4FEEF
S1134ED832BD0000630900209049C02250430818DD
S1134EE889300178491C0170C9B2052901DB002108
S1134EF801700078704738B504000D00002C03D108
S1134F0801218748FEF7F3F82900200000F08CFB04
S1134F1831BD000004F4FF1FECF3FF1FF0B583B0AC
S1134F2805000C00160060788006870FE078000200
S1134F386946888068468088A178084369468880DD
S1134F482800FCF7F8FF69468871684680790028CC
S1134F581CD13800FCF774FE07003B0001AA2900A5
S1134F682000FDF7BAFC68468088C0B20090231D73
S1134F78FF223100A87800F07FFB3B006846828856
S1134F88D2B23100A87800F05AFB04E032002100C4
S1134F982800FEF79BFC68468079FEBD70B50400C6
S1134FA8002602F073FD0500200002F076FD0021C2
S1134FB801228A40154205D0104203D1330016005D
S1134FC81E43B6B2491C0529F2DB300070BD70B52A
S1134FD805000C00200002F059FD0126AE40050032
S1134FE8200002F05AFD010029433140080000D096
S1134FF80120C0B270BD10B50400080002F04DFDD8
S11350080121A1400140080000D00120C0B210BD18
S113501838B500240020FFF7C1FF05000ED0280092
S1135028E040C00707D52100002000F044FB210020
S1135038002000F004F8641C052CF0DB31BDF8B541
S113504805000F0000262900380002F036FD040090
S1135058002D1ED1314D28002030FCF7A7FF032C6A
S113506804D10021380002F02EFD0600390000208A
S113507800F03CFE032C0DD131000020FEF782FD28
S113508828002030FEF71AF8022120352800FEF700
S11350982EF8F1BD002C04D001210020FCF7F0FC0F
S11350A8EEE73900002000F021FEF1BDEDF3FF1F0B
S11350B883791943817100D1704780B511008078D4
S11350C800F024FE01BD82798A43827100D07047C2
S11350D880B5807800F032FE01BD38B504000025A3
S11350E800952A0069462000FEF7F5FB0098002881
S11350F801D000F0F0FE2900A07800F0F0FA2900B1
S1135108A07800F0F3FD6D1C052DEADB31BD01200C
S11351187047002070470000DC0700204000002092
S11351286000002038B5040014E038B504000128F4
S113513806D0022806D0042806D0082806D009E09C
S1135148EA2004E0EC2002E0EE2000E0F820400031
S113515802F0E4FCA94D102001F0A6FB04432C80C6
S11351682988102001F0A3FB31BD38B50400A34DF4
S1135178102001F099FBA0432880F1E738B504001A
S1135188F8204000012C04D0022C04D0042C04D0B4
S113519804E01C3802E0183800E01438002202F059
S11351A8A7FC964D102001F07FFBA0432880D7E789
S11351B880B50100082000F0ABFB38B50C001100E5
S11351C8012806D002280BD004280BD008280BD0BD
S11351D831BD2025082809D1B02001F068FB05E07D
S11351E83825F7E75025F5E7A825F3E72100280037
S11351F8B8E738B5FF210120FFF7C0FF3F2102209F
S1135208FFF7BCFF1F210420FFF7B8FFFF21082088
S1135218FFF7B4FF3020FFF7A8FF8021002001F03A
S113522846FB0020A6490870A6480168080001D07A
S11352380020884700220021012000F095FEA24C9E
S1135248250022356988EA20400001F030FBA9884E
S1135258EC20400001F02BFBE988EE20400001F02F
S113526826FB0021B02001F022FBE989F820400048
S113527801F01DFB002000F000FB6A4621002031EC
S1135288072000F071FE68460188E620400001F01E
S11352980EFB6A4621002131072000F065FE6846AE
S11352A80188F220400001F002FB698AFC204000DA
S11352B801F0FDFA2988E820400001F0F8FA2000FE
S11352C80C3000F02DFC20000C3000F013FC00F032
S11352D84BFB298BB82001F0EAFA698BBC2001F05A
S11352E8E6FAA98BC42001F0E2FA3F20FFF71AFF7F
S11352F807219320C00001F0DAFA5421002001F0BC
S1135308D6FAE02000F08BF8E82000F088F8F020C6
S113531800F085F80020FDF708FF4634207861780E
S113532809020143B34801F0C2FAE97DB24801F029
S1135338BEFA80214900AC2001F0B9FA002183208B
S113534880000FE710B5040060792179042901D1A0
S1135358C84900E049000143A07B042802DA0A0096
S1135368C1001143607B40010843A1790A0202434A
S1135378E02189011143182001F099FA21881C20A1
S113538846E110B50400E02000F049F823785B1CDE
S1135398DBB222000021E02001F0B0FA10BD10B504
S11353A80400E82000F03BF823785B1CDBB2220001
S11353B80021E82001F0A2FA10BD80B54048017828
S11353C801220A4302703F480168080001D0012005
S11353D888474021002001F06AFA0120FFF7A2FE65
S11353E801BD80B50120FFF7C0FE4121002001F076
S11353F85EFA33480278FE2156E0000018090020BE
S113540880B508E080B50B0002000021F82001F007
S113541851FA01BD80B5F82001F046FA02BD38B54D
S113542804001025200001F03FFA6D1EFAD131BDA9
S113543810B50400607921794A000243A079C100BB
S11354481143302001F033FA2188282001F02FFA83
S113545861882C20DCE080B542782021302002F0DD
S113546847FB1748017802220A430270154801686D
S1135478080001D0012088474221002001F017FAD2
S11354880220FFF74FFE01BD80B50220FFF76DFE35
S113549800222021302002F02BFB4321002001F0C0
S11354A806FA07480278FD21114001700548026890
S11354B8100003D0080000D00120904701BD00006F
S11354C85F090020F0080020CCF3FF1F10B504008A
S11354D8207E6279520002432079C00010434901BA
S11354E80143482001F0E3F92188402001F0DFF965
S11354F8618844208CE070B50C0015001E00010082
S1135508B02001F0D4F92100E920800001F0CFF99E
S11355182900EA20800001F0CAF93100EB2080005C
S113552801F0C5F96C43A1B2EC20800001F0BFF989
S113553870BD10B50C000100B02001F0B8F92100CD
S11355488620400064E010B50C000100B02001F092
S1135558AEF92100822040005AE038B50C0015004D
S11355680100B02001F0A3F92100842001F09FF983
S113557829008020F6E510B50C000100B02001F0E8
S113558896F921008420400042E080B50100B02053
S113559801F08DF9012205E080B50100B02001F089
S11355A886F9002220218E20400002F0A1FA01BDD4
S11355B880B56048017804220A430270B84801683B
S11355C8080001D0012088474421002001F06FF928
S11355D80420FFF7A7FD01BD80B50100B02001F04C
S11355E866F94521002001F062F952480278FB214E
S11355F85AE70000140A0000180A000010B5040055
S11356082100B02001F053F9200270210143002049
S113561801F04DF910BD10B504002100B02001F0CF
S113562846F920027121F1E710B50C000100B02001
S113563801F03DF98021214394204000E8E7F2B5C8
S1135648060017001C00084602F031FA0500310074
S1135658B02001F02CF93002B9000143214328009D
S113566801F025F9B8486946097840188455F1BD10
S11356780000000002040000F8B507000E00140042
S11356881D0000F009F8069B2A00002101F04EF9DC
S1135698B1488019C455F1BD10B50C000100B02003
S11356A801F005F9A001C021C900401880B210BD5D
S11356B880200001704710B50C000100B02001F0F3
S11356C8F6F8210096204000A2E710B50C0001006E
S11356D8B02001F0ECF821009420400098E738B598
S11356E805000C00FFF7F1FF21002800FFF7E3FF96
S11356F831BD401880B27047814201D3081A02E0D4
S1135708964A101A401880B2704710B5030000205A
S1135718994201D3C91A02E0904CE31A591889B284
S113572880231B02994201DA914200D2012010BD64
S1135738000000005F09002010B50C000100B02033
S113574801F0B5F89220400001F0AEF802222100E1
S1135758FFF7DBFF10BD10B50C000100B02001F00D
S1135768A6F89220400001F09FF8001980B210BDFD
S113577880B50100B02001F09AF8922040004BE671
S113578810B50C000100B02001F091F86078010216
S113579820780143882001F08AF8E0780102A07893
S11357A801438C2001F083F86079010220790143D8
S11357B890202DE738B504000D002100B02001F039
S11357C876F829008C20400001F071F820024B2162
S11357D801430020C6E4F8B5882453781E021378E0
S11357E81E43D3781D0293781D4353791F021279FF
S11357F81743002900D098240100B02001F057F87D
S11358083100200001F053F82900201D80B201F076
S11358184EF839000834DEE038B51400882500292C
S113582800D098250100B02001F041F8280001F0CB
S11358383BF82070000A6070281D80B201F034F82B
S1135848A070000AE0700835A8B201F02DF82071A4
S1135858000A607131BD38B504000D002100B02084
S113586801F025F8691E89B28C20400001F01FF868
S113587820024C210143002074E480B53849C02239
S1135888504308188830FF2141700170002181704D
S11358983448418D8E20400002F040F901BD0000DB
S11358A8F008002010B504002100B02000F0FFFF2C
S11358B82B48C021614340188830FF214170017092
S11358C8002181700022200000F0F4F910BD80B599
S11358D82349C022424389188831FF224A700A703A
S11358E800228A70002100F0E5F901BD80B580210D
S11358F84901884200DB481E0100B02007E080B55A
S113590880214901884200DB481E0100B220400082
S113591800F0CDFF01BD80B500024D2101430020F8
S1135928F6E738B50C000100B02000F0C0FF8E2562
S11359386D00280000F0B8FF574A0240A101114346
S11359482800FFF70FFC00004808002080B5B020AD
S113595800F0AAFFC0B202BD40080020FFFF00000B
S113596840000020CCF3FF1F80B500217C2000F00C
S11359789EFF0021782000F09AFF74210020C7E7D9
S1135988F8B504000E0017000125A5400122A9B2AC
S11359987C2002F0ADF83200A9B2782002F0A8F811
S11359A8F8780602B8780643787905023879054309
S11359B80C204443D02080002418787801023878D9
S11359C80143A0B200F073FF241D3100A0B200F01F
S11359D86EFF2900241DA0B200F069FFF1BD80B557
S11359E800220121814089B27C20DEE5F1B586B030
S11359F8FF206A461071487800020A781043049020
S1135A08C87800028A78104303904879000209791B
S1135A18084302907C2000F047FF6946C88078203C
S1135A2800F042FF07007421002000F040FF00242A
S1135A38012501E0641CE4B2AB480078844226DA0C
S1135A48D020800000F030FF0600D020800000F055
S1135A582BFF049A72400399414011430091029E1E
S1135A68D020800000F020FF464000990E43E1D189
S1135A780120A0406946C9880842DBD06846007EF8
S1135A883900E14029408842D4D168460471684607
S1135A98007907B0F0BD0000BFFF000010B5FF2477
S1135AA87C2000F001FF0021A34A00E0491C3823B0
S1135AB8D35CC9B2994204D20300CB40DB07F5D4C6
S1135AC80C00200010BD000010B50400607801022D
S1135AD820780143682000F0EAFEE0780102A0780B
S1135AE801436C2000F0E3FE607901022079014350
S1135AF870208DE510B50400607801022078014318
S1135B08582000F0D4FEE0780102A07801435C201C
S1135B1800F0CDFE6079010220790143602077E529
S1135B2810B504006078010220780143E0204000A9
S1135B3800F0BDFEE0780102A0780143E2204000B5
S1135B4800F0B5FE6079010220790143E4204000A9
S1135B585EE570B50400682000F0A6FE06006C201F
S1135B6800F0A2FE0500702000F09EFE2670310AA7
S1135B786170A570290AE1702071000A607170BD16
S1135B8810B50400012906D1482000F08DFE8107D4
S1135B98C90F217010BD182000F086FEC00B2070BC
S1135BA810BD34B505000C00002269460C2000F035
S1135BB8DBF9A802E101014368460078014389B290
S1135BC8B820400000F073FE9948017808220A437F
S1135BD8027098480168080001D0012088474621CE
S1135BE80020FFF7BFFA01B5002269460D2000F036
S1135BF8BBF968460178B820400000F058FE8C488C
S1135C08017808220A4302708A480168080001D012
S1135C1801208847472100207AE610B54821002052
S1135C2800F045FE82480278F7211140017081484E
S1135C380268100003D0080000D001209047B8245F
S1135C486400200000F030FE4006FAD4002200214F
S1135C580E2000F089F9BA20400000F025FE10BD9E
S1135C6880B50B0002000021F020800000F05EFEE9
S1135C7801BD80B57F4908884880FFF776FA01BDE1
S1135C8880B57C484088FFF74DFA01BD38B50C0053
S1135C980100B02000F00BFE8E256D00280000F0F6
S1135CA803FE754A0240224380214900114328001B
S1135CB8FFF758FA70B50E0014000100B02000F088
S1135CC8F6FD8E256D00280000F0EEFD6A4A0240BC
S1135CD832436A491140002C02D108001021414086
S1135CE8280000F0E4FD70BD04F4FF1F10B50C009B
S1135CF80100B02000F0DBFD200001F0D8FE0021F7
S1135D08FFF786FC80B5C820FFF786FB38B50D0081
S1135D1804002100B02000F0CAFDA800052101F00C
S1135D281AFB81B2564800F0C2FD200272210143D9
S1135D380020FFF717FA0000CCF3FF1F10B504008A
S1135D482100B02000F0B3FD20027321FFF75EFCB0
S1135D58F8B50C0017001D000100B02000F0A7FDE5
S1135D68F420400000F0A0FD06008020400000F070
S1135D789BFD20808420400000F096FD388082201E
S1135D88400000F091FD28807007400F06990870C4
S1135D98F1BD38B50400A1252D01280000F084FDCB
S1135DA8012C02D10121014301E03649014081421D
S1135DB802D0280000F07BFD31BD10B50C000100B5
S1135DC8B02000F074FD21002F48FFF721FC10B526
S1135DD80400182000F068FD2C4A02406007810C7A
S1135DE811431820FFF714FC10B50400182000F024
S1135DF85BFD8004400F207010BD10B5040200291B
S1135E080ED10100B02000F052FD0021A2200001B3
S1135E1800F04DFD00211E4800F049FD762104E004
S1135E280100B02000F043FD75212143FFF7EFFB8B
S1135E385F090020F008002070B50C00160005006A
S1135E482900B02000F033FD2100A220000100F059
S1135E582EFD31000E4800F02AFDC0210902082059
S1135E68FFF763F9280275210143002000F01FFDA4
S1135E7870BD000018090020F0FF0000FFFE0000BC
S1135E88040A0000FEFF00001C0A0000FFC700000F
S1135E98240A000010B50400080000F066F9206028
S1135EA8002801D1052010BD002010BD80B500E0F8
S1135EB880B500F099F9002800D0052002BD10B57E
S1135EC80400242000F051F92060002801D10520A5
S1135ED810BD002010BD80B5EBE710B504002420E8
S1135EE800F043F92060002801D1052010BD0020EE
S1135EF810BD80B5DDE710B50400202000F035F9A9
S1135F082060002801D1052010BD002010BD80B5F7
S1135F18CFE710B50400202000F027F920600028FE
S1135F2801D1052010BD002010BD80B5C1E710B512
S1135F380400402000F019F92060002801D1052050
S1135F4810BD002010BD80B5B3E730B500224B1E4C
S1135F5805E0845CC55C8554C454521C5B1E4C0823
S1135F68A242F6DB30BDFFFF10B50B001400401E43
S1135F7808282BD801A1095C8F4400BF0A101C26ED
S1135F882A3038424A0000F054F810BD596818689D
S1135F98C0B200F01CF818E0187800F033F820605C
S1135FA810BD188809E000F093F806E0188800F09E
S1135FB879F80AE0187800F07FF8208010BD187886
S1135FC800F072F801E03F480078207010BD70B509
S1135FD804000D000902090CDA20400000F067FCF7
S1135FE8D62676002002EAB2024380210902114330
S1135FF8300000F05CFC300000F056FC8005FAD557
S1136008002070BD38B5D62464000102200000F0D9
S11360184EFC200000F048FC8005FAD5DA20400048
S113602800F042FC0502200000F03EFCC0B2284308
S113603832BD38B5244D2878C100D82000F037FC8B
S11360482800663081780C0200780443298CC82023
S1136058400000F02CFC698CCC20400000F027FCA8
S113606821009620800000F022FC0024002017491B
S1136078401C80B28842FBD1600028186A3001882D
S113608880221202914209D07F29018F008803DA05
S1136098C0B2FFF79CFF01E000F009FC641C1C2C53
S11360A8EADB31BD40B2704707490007000F081802
S11360B85430007840B2704703490007C00E0818EE
S11360C8808E704757F3FF1FF0F2FF1FFFFF000099
S11360D880B5A420000100F0E7FB02BDF8B55D4FD0
S11360E85D4E5E4C00205E490880B878F978090650
S11360F8090C08430500EDB22900300002F064F8E9
S1136108EDB2002D13D02100300002F066F8E660ED
S113611853480088401C5249088038787978090621
S1136128090C084380B2241810346D1EE8E7387847
S113613879780906090C0843B073000AF0733879B2
S113614879790906090C08433073000A7073307BA7
S1136158717B0906090C084380B2002801D100208C
S113616802E010363F1DC0E7F2BD70B504003A4D99
S1136178012002F09AFA002C31D0A87BE97B0906A9
S1136188090C084380B2A0421FD3280002F04CF83F
S11361980600002E0AD0103631480088401E3049C7
S11361A80880012002F08AFA30001CE0287B697B11
S11361B80906090C084380B2A04210D3287B697BE6
S11361C80906090C084380B20400287B697B090688
S11361D8090C084380B2002801D01035CBE7012010
S11361E802F06CFA002070BDF8B50500002D01D14D
S11361F803202DE0012002F058FA2E00103EF76823
S1136208154CA74203D1B068002814D00EE0207BB7
S1136218617B0906090C084380B2002804D10120D7
S113622802F04CFA032013E01034EAE7012002F0EC
S113623845FA03200CE00A480088401C08490880F5
S11362483100380001F0C9FF012002F037FA0020BC
S1136258F2BD000018F6FF1F0406002020F7FF1FF8
S11362683609002038B505000C00103C2100280030
S113627801F0B3FF32BD38B50400200001F0D4FFAB
S11362880500002D01D01035FFE7280032BD0A1D96
S1136298F8B5040000F0B0F8664800F0D3F806003A
S11362A8350000F0A4F8002D01D1002014E02100ED
S11362B8C9B23000001D02F03CF80700FFB2002FFD
S11362C809D000F099F829005A4800F0E6F800F0DF
S11362D88EF8002005002800F2BDF8B504000D0072
S11362E82100544800F0C3F8002801D1012008E037
S11362F8260029003000001D02F030F8070038009D
S1136308C0B2F2BD70B5060031004A4800F0AFF8DB
S1136318002801D1012007E034002000001D02F00C
S113632860F805002800C0B270BDF8B5040000F09C
S113633863F8414800F086F80600350000F057F885
S1136348002D01D1002019E0E4B2002C01D0002175
S113635800E00121C9B23000001D02F05BF807001B
S1136368FFB2002F09D000F047F82900324800F0A6
S113637894F800F03CF8002005002800F2BDF8B5B8
S113638804000D0021002C4800F071F8002801D108
S1136398012008E0260029003000001D02F0C4F89E
S11363A807003800C0B2F2BDF8B584B004000F008D
S11363B816000A9D2100204800F059F8002801D150
S11363C8012012E00294F6B2002E01D0012200E06E
S11363D800220095049BD2B239000298001D02F0F5
S11363E83DF8694608716846007905B0F0BD80B586
S11363F8012002F063F901BD80B5012002F055F9CE
S113640801BD00B585B002F062F904A8039000202C
S11364180290002001900720009000238022D200DF
S11364280649074802F0B7F802F058F9002005B009
S113643800BD0000F0F10100FCF10100E4F10100ED
S11364487D5B010000B501000B680020020088682C
S113645882420AD21868002803D101201860180063
S113646804E0521C48681B18F1E7002000BD10B571
S11364780200146800200300906883420BD28C4207
S113648805D12068002801D0012005E003E05B1C49
S113649850682418F0E7002010BD10B503680024E4
S11364A822008468A24208D28B4202D100241C60D4
S11364B803E0521C44681B19F3E710BD70B53F484C
S11364C8C478200001F03EFC0500200001F057FDCF
S11364D806002E432000FBF7EFFD304370BD70B576
S11364E836488478200001F024FC0500200001F0DF
S11364F83DFD06002E432000FBF7DFFD304370BD51
S11365082F48704710B52D492E4A8A6000228318F7
S11365189B78002B01D08C182372521C042AF6DBBA
S11365288868FF229A325043886000F005F8FBF728
S11365388EFC0128F9D110BD10B5FFF7E3FB01006B
S11365481E4A906848404108C30744075C40030753
S1136558634084065C40604080231B06184008435F
S1136568906010BD80B502F06DF90002000A02BD0A
S113657810B502F067F90400FBF769FC0128F8D1AB
S1136588200010BD80B56A4600210920FFF7ECFC05
S11365986846007802BD80B502F054F900900021E5
S11365A86846405CC006C00E421F0C2A00D202BDD9
S11365B8491CC9B20429EFDAF2E7000040000020C0
S11365C8FC0200200403020138B50D001900059CE3
S11365D82070030A6370030CA370000EE070680651
S11365E8400ED201024322710422601DFDF77EF998
S11365F80422049909342000FDF778F931BDACADC3
S11366084018C003000C704780B5FFF7F9FF02BDBE
S113661810B5040008007B4900F09AFEC01C210054
S11366285C310A8880B2824200D810005200101AE5
S1136638C8807548427800781302034305D0CC8893
S1136648A34202DA12020243CA8010BDF8B505005B
S11366586E48C021694344182034807B002811D136
S113666827005A3778884600FFF74CFB82190092B6
S1136678001DB1B200F06CFE009A501A001D398852
S1136688401A20802800F2BDF4B506000C00002A48
S11366982CD017465E480078002801D107E07F080F
S11366A8F80704D57810864201DA0C2FF7DA30009F
S11366B8390000F04DFE05003000390000F048FEB6
S11366C8002900D06D1C7D43ADB2AC4200D2350028
S11366D820006946098800F03BFE010068460088EE
S11366E8414389B2A94202D2210000E035002804BE
S11366F80843F2BDF8B517001E00FFF7C5FF0400F4
S1136708050C002E13D03A0006993000FFF7BCFFA1
S11367180100000C854202D2A4B2844200D22800AF
S113672889B2A4B2A14203D2A94202D200E028004D
S11367382100000489B20843F2BD0023012A01D1D3
S1136748030002E0002A00D10B001800704710B5BE
S113675804000800002C02D0012C04D00DE000280D
S11367680ED1042010BD5900891E89B2814207D375
S113677810008A4204D9080002E010180004400CF2
S1136788022800DA022010BD7047704710B55E2158
S1136798415A0A01541A10348078FEF7E9FFA1B26D
S11367A8FEF7A7FF10BDF8B504000D001700002B75
S11367B821D0069E002221001846FEF7A6FF0128D4
S11367C80CD1684601882000FEF796FF78438019AB
S11367D880B2290000F0BCFD080010E021006846E2
S11367E80088FEF789FF7843801B80B2290000F0F7
S11367F8AFFD681A03E02800062100F0A9FD80B265
S1136808F2BD0000710200000EF4FF1F40000020DA
S1136818640900200023914204D0002802D0824257
S113682800D3030018007047F8B582B01400503044
S11368380500491C89B22888401C0A22504380B2AA
S11368480E18608E002803D069460880A78E03E0DE
S11368586846E18A0180278B0022B1B26846008825
S1136868FEF753FF01280CD168460188B0B2FEF741
S113687843FFA9884843C01980B2A18C00F068FD81
S11368880DE0B1B268460088FEF736FFA48CA988EB
S11368984843C01B80B2210000F05AFD611A0298D7
S11368A8068008980180F7BD1249405A7047114A7A
S11368B881527047F8B5070014001D00681C0E4982
S11368C801400091002608E03800FFF7EDFFA11908
S11368D80870000A4870B61CB6B200988642F3DB0A
S11368E8E80705D560190178421E13780370117002
S11368F8F1BD000000B00540FEFF0000F8B504003B
S1136908170000255E1E08E041780902007801435B
S11369182000FFF7CCFFAD1CADB27819B542F3DB0C
S113692803D101782000FFF7C2FFF1BDF8B50400D8
S1136938170000255E1E09E041780902007801432A
S1136948A0B2FFF7B4FF241DAD1CADB27819B5424F
S1136958F2DB03D10178A0B2FFF7A9FFF1BDFEE78E
S113696880B5FBF7D9FB02BD80B5FBF767FC02BD18
S113697880B5FBF728FD02BD80B5FBF7B7FC02BD67
