S01600004F746170426F6F746C6F616465722E737265636F
S1130000F81F002051000000650100006501000098
S11300106501000065010000650100006501000044
S11300206501000065010000650100006501000034
S11300306501000065010000650100006501000024
S113004000B5024839490860FEE700000400FA05DB
S113005080B50021002000F001F801BD00B572B6A2
S1130060344A354B1A600022344B1A60344A126801
S113007080239B001343324A1360324A1268324B86
S11300801340304A13602F4A126880235B001343E5
S11300902C4A13602A4A12688023DB001343284A3F
S11300A013602A4A1268284B1340284A1360274ACF
S11300B0126880235B001343244A1360244A1268A5
S11300C0214B1340224A1360214A126880235B00AB
S11300D013431F4A13601A4A126880231B011343F7
S11300E0174A13601B4A1268174B1340194A1360CE
S11300F0184A126880235B001343164A1360164A99
S11301001268114B1340144A1360134A1268802377
S11301105B001343104A1360054A104B1A60104ADF
S11301201268022313430E4A1360FEE70CED00E04D
S1130130C01400000000000008ED00E0008104404D
S11301403880044000900440FFF8FFFF0CA00440F6
S113015048A0044000B0044004B004400000002063
S10F016084F00F4080B5FFF76BFF01BD79
S1130400FFFFFFFFFFFFFFFFFFFFFFFFFEFBFFFFFD
S903005D9F
