S01A00006F7461705F636C69656E745F6174745F424D2E73726563E2
S1130000F81F0020F1060000B5080000B508000044
S1130010B5080000B5080000B5080000B5080000E8
S1130020B5080000B5080000B5080000B5080000D8
S1130030B5080000B5080000B5080000B5080000C8
S113004000000000000000000000000000000000AC
S1130400FFFFFFFFFFFFFFFFFFFFFFFFFEFBFFFFFD
S113041000B5AA48AA490860FEE7000000B501003B
S1130420481E002901D000BFF9E700BD10B5032420
S11304302000441E40B2002814D0A24800680121C4
S11304400143A048016090204003FFF7E7FF9E4866
S11304500068012101439C48016090204003FFF79C
S1130460DDFFE5E710BD10B503242000441E40B2B3
S1130470002816D0954800688021C902014393489A
S1130480016090204003FFF7C9FF91480068802174
S1130490C90201438E48016090204003FFF7BEFF6C
S11304A0E3E710BD80B58948006808210143874807
S11304B00160DE20C002FFF7B1FF85480068082113
S11304C0014383480160814800688021C9020143D7
S11304D07E4801609F200003FFF7A0FF7C4800686E
S11304E08021C90201437A4801607A4800680121E9
S11304F00143784801609F200003FFF78FFF76488F
S1130500006801210143744801606E4800680121BC
S113051001436C480160FE20C002FFF77FFF6A4878
S113052000680121014368480160664800680221AF
S11305300143644801609F200003FFF76FFF01BD82
S113054001B462B6016881F30888001D00680047A1
S113055001B07047F0B5614CA544002501276048FF
S1130560039000F0ABF900F061FA002801D000F02C
S1130570B9F801AA0021042000F091FA002801D062
S113058000F0B0F8564A0421202000F088FA002830
S113059001D000F0A7F8FFF749FF9F2080028542B1
S11305A07BD20198AE49884203D38020C0000090DA
S11305B001E00198009003980078384259D0A94886
S11305C0854256D3280000F0E7F9002801D000F056
S11305D089F8009800284CD004AA290024310098F6
S11305E080B200F05CFA002801D000F07BF89E484D
S11305F0A84235D39C4800996918884230D29A4859
S1130600461B320004A9280000F080F9002801D01C
S113061000F068F800200400002C08D1FF2002A993
S11306200855002002A909194870641CF4E7300039
S1130630801C040004A8005D02A98870641C04A83E
S1130640005D02A9C870361D0098821B04A8811998
S1130650A81900F05BF900280BD000F043F808E07B
S1130660009A04A9280000F051F9002801D000F0F4
S113067039F87F00FFB2002F04D10120070003984E
S1130680401C03908020C0002D180198002884D0BD
S113069001980099401A01907FE7042202A9724848
S11306A000F034F9002801D000F01CF8FFF7FAFE3E
S11306B0FFF7AEFE6D488544F0BD00000400FA0566
S11306C00CED00E084F00F4088F00F4044F00F4040
S11306D048F00F4004F00F4008F00F40ECFBFFFF20
S11306E08000002080B5FFF7BEFEFFF791FE01BD3C
S11306F080B50021002000F001F801BD38B50500E7
S11307000C0072B65A485B49086000205A490860D8
S11307105A480068802189000143584801605848BC
S113072000685849014056480160554800688021D6
S113073049000143524801605348006801210143C4
S1130740514801604D4800688021C90001434B486D
S113075001604E4800684B4901404C4801604B48D9
S11307600068802149000143484801604848006806
S11307700821014346480160464800684149014058
S113078044480160434800688021490001434148CE
S113079001603F4800688021C90201433C48016070
S11307A036480068802109010143344801603A4811
S11307B000683449014038480160374800688021A6
S11307C04900014334480160344800680121014371
S11307D032480160324800682A49014030480160CB
S11307E02F4800688021490001432D4801602B48AF
S11307F0006802210143294801602A480068012158
S1130800014328480160284800680821014326481C
S11308100160254800688021C90201432248016023
S11308202248006801210143204801601F480068F4
S1130830022101431D4801600B481D4908601C4802
S113084000680078002802D1FFF784FE05E005481F
S1130850084908600348FFF773FE002032BD00001A
S11308600104000000140000C0140000140400007F
S11308700000000008ED00E00081044038800440DE
S113088000900440FFF8FFFF14F00F400CA0044058
S113089054F00F4048A0044000B0044094F00F40CE
S11308A004B0044008F00F4048F00F4088F00F40B7
S11308B0B000002080B5FFF715FF01BD00B5354A33
S11308C0521E920702D00222100001E00022100002
S11308D08022121A1100364A80B21218521C354B6B
S11308E01A6080B289B2884209D22A4A80B21218A8
S11308F0521E12782E4B80B21A54401CF1E72E4A35
S11309001268012313432C4A136000BDF2B582B070
S113091007001400029EB807800F002801D00120B0
S113092036E0002C33D0002C17D0042C15D2002034
S11309300500A54205D2307869464855761C6D1CE1
S1130940F7E72500042D04D2FF20694648556D1CA5
S1130950F8E76846060004200400304807600620D3
S11309602E49C87004200500082D05D230782B4983
S11309704855761C6D1CF7E72800C0B200F01EF83D
S1130980002801D0012003E03F1D241FC9E70020F7
S1130990FEBD0000010A000010B504001F480460F9
S11309A009201E49C870042000F008F810BD00009A
S11309B000000020AC0000203C80044070B506001C
S11309C0174C164D17480078C0B20006FAD57020AF
S11309D0144908703000461EC0B2002804D028789C
S11309E020706D1C641CF5E70F48006880470D48B3
S11309F000783121084201D0012000E0002070BDC0
S1130A0000B5084800788021014306480170054874
S1130A100078C0B20006FAD500BD0000A000002096
S1130A200400024000000240AC00002010B584B075
S1130A3002A85B490A680260FA2040010090002085
S1130A40694688710020694648710020694608712A
S1130A50002000F0ABF86946002000F0FBF800F03D
S1130A6065F80400E4B2002C02D02000C0B214E007
S1130A704C4800688021090301434A48016004236B
S1130A80002202A9002000F0E9F84748006880210C
S1130A900903014344480160002004B010BD70B54F
S1130AA004000D00160000F016F80028FBD1290000
S1130AB0032000F056F8A4B22300320000210020E5
S1130AC000F0CCF838480068802109030143364817
S1130AD00160002070BD80B500F007F80100C9B2C4
S1130AE0C90901204840C0B202BD80B5D72069467B
S1130AF008802C48006880210903014329480160CB
S1130B00012300226946002000F0A8F802236A4667
S1130B100021002000F0A2F8234800688021090386
S1130B200143214801606846008802BD80B58020E9
S1130B30C00069460880FFF7CEFF002809D0684648
S1130B400088002805D068460088401E6946088051
S1130B50F1E768460088002801D0002000E0042066
S1130B6002BD38B505000C00684605702000000C75
S1130B7069464870200A6946887020006946C87032
S1130B8008480068802109030143064801600423E2
S1130B9000226946002000F061F831BD0000000029
S1130BA0480D000088F00F4084F00F405549096853
S1130BB0802212010A4353490A605349096880227A
S1130BC052010A4350490A6050490968504A0A4090
S1130BD04E490A604D490968802292000A434B49F4
S1130BE00A604C4909684A4A0A404A490A60494924
S1130BF00968802292000A4346490A604649096806
S1130C00434A0A4044490A604349096880229200E1
S1130C100A4341490A60414909683D4A0A403F493B
S1130C200A603E490968802252000A433B490A602F
S1130C303B490968802212030A4339490A60394949
S1130C400968802212030A4336490A603649374A42
S1130C5011607047364A374B1A60704738B5040044
S1130C6000206D462870002B01D1002049E00029A6
S1130C7003D1002A01D1012043E02C480068C0259B
S1130C802D010543294805602B4800682B4D054379
S1130C90294805601800431E00282FD0002904D0DD
S1130CA008786D462870491C02E0FF206D462870C4
S1130CB068460078224D28601C4800680125A84336
S1130CC01A4D28601C4800680028FBD51A480068A3
S1130CD080252D0605431848056014480068012541
S1130CE0054312480560174800686D462870002ABD
S1130CF0D0D0684600781070521CCBE76846007864
S1130D00002032BD388004403C80044040B00440A0
S1130D10FFF8FFFF44B0044048B004404CB0044026
S1130D2094F00F4084F00F40010E018100C0024096
S1130D3051447C380CC002402CC002400000029098
S10F0D4034C0024038C002403D2A80A6A6
S11314000040002079B30100136500006F680000FC
S113141000000000000000000000000000000000C8
S113142000000000000000000000000087700000C1
S11314300000000000000000B7780000FF7A000000
S113144039B4010039B4010039B4010039B40100E0
S113145039B4010039B4010039B4010039B40100D0
S113146039B4010039B4010039B401008B650100BD
S113147039B4010039B4010039B4010039B40100B0
S113148039B4010039B4010039B4010039B40100A0
S113149039B4010039B4010039B4010039B4010090
S11314A039B4010039B4010039B4010039B4010080
S11314B039B4010039B4010039B4010039B4010070
S10714C0FF00000223
S11314C8F8B5002822D1A34CC022002120002030E6
S11314D802F021FA2500223500262E70AE7027006E
S11314E86C373E702000203001F053F9203420007E
S11314F803F0F2FA9848E881BE779848807AC006E3
S1131508C00E00D00120A8770120F2BD0020F2BD52
S113151870B505000C00B54E307800280AD1FFF7E5
S1131528CFFF3470002000F0CFFCB080002028707A
S1131538012070BD002070BD80B586498A7B002AD1
S113154801D0521E8A73FFF7BBFF02BD0100C80613
S113155805D18048028D8A4201D12030704700208D
S1131568704770B505002888FFF7F0FF040003D022
S113157802F06BF9002801D1022070BD20790928F6
S113158817D026004E36A878B072200002F0CEFBA1
S113159805003078012801D0708A00E0B0880A225A
S11315A842430121200003F067FD002D01D10920E9
S11315B82071002070BD80B508E080B50279002A4A
S11315C801D1002102E0092A00D1222158228154A4
S11315D800F08CF901BD002800D07047F8B55D4CC7
S11315E82000203002F031F900284DD025002235A2
S11315F8A878032802D0052802D00CE0042000E0D3
S11316080620A87000212034200000F05EFA002093
S113161801F092FDF1BD27006E37798A287803F02E
S113162872FF387801282FD100212000203002F0E1
S1131638BCF92000B430009000680026002812D0BD
S11316484288002A0BD002886A824288AA82828849
S1131658EA82C2882A8302896A834189A98304F0B9
S11316684CFC009806603E702000203002F034F8EC
S1131678A878072803D12000203001F0B5FD022105
S11316882034200001F027FDF1BD002800D0704768
S113169880B56A460021052004F042FC68460188AA
S11316A88F4800F0C5FA01BD70B506000D000C2086
S11316B804F02EFD040012D00C22002102F02BF9B4
S11316C80F20208125606660002060812100854804
S11316D804F086FD01218448006804F0EDFD70BD26
S11316E838B505000C2004F013FD040012D00C22B8
S11316F8002102F010F90A20208125600020606092
S113170860812100774804F06BFD01217648006868
S113171804F0D2FD31BD002800D0704710B50D4C3F
S11317286D20205C02280DD100206D21605420001A
S1131738203003F03CFA002804D102212000203094
S113174801F0C9FC2034200001F0C6FF03F0AFFA11
S113175810BD0000B0040020B80B000020FCFF1FDF
S113176880B54905490F012907D011D303290CD0A5
S113177807D305290AD008D301BD3E21FFF71BFF73
S113178801BD0821FFF719FF01BD21E700F007F9A2
S113179801BD002800D07047F8B5C54C25006E354A
S11317A82878012820D127002237A98A387803F01D
S11317B8A0FE2000203003F0FAF9012814D004F028
S11317C867FEEA89F97800F0A7FF060004F068F8D4
S11317D8B8480078311889B22034200004F09EFEFD
S11317E8A98A387803F085FEF1BD0000D4040020EE
S11317F810B504F085F80400AC2004F0D9FF010BFF
S113180802D02000FFF750FF10BDF8B505000426EC
S1131818A94FA74C04F007FA7620205A009000201C
S11318287621605204F006FA2000203002F00DF808
S1131838012853D1009880070BD538783043387085
S11318489E480168080001D0012088470020FFF75E
S1131858C2FE0098C0060BD50020FFF716FF974874
S11318680168080004D03878002800D0012088478F
S11318780098800602D50020FFF732FF0098400642
S113188801D5FFF7B5FF0098000602D50020FFF741
S113189880FF0098304202D00020FFF73CFF280464
S11318A802D5002001F06CFC680402D5002001F088
S11318B874FC0098C00711D53878FB2101403970B1
S11318C87E480268100003D0080000D00120904729
S11318D8009989B220342000FFF742FFF1BD0000CF
S11318E8D0040020F80A0020EC0A0020F0B583B0E8
S11318F80400A71C6846F98801800025FD8026009D
S11319085836B878022819D902E0019804F0D9FAAF
S1131918200003F0D9F8002807D100AA921C01A9D5
S1131928200003F0B3F80028EFD0200003F0B9FB3F
S1131938B17B6846008805F047F8B573F06B00285A
S113194802D004F0DAFAF563306C002802D004F00F
S1131958D4FA35643178002903D06846008800F049
S1131968E5F80021387804F022FA200001F0D1FBD0
S1131978387803F05CFF3878FFF7DEFD0B2003F0BE
S113198812F901F0A1FEF7BD10B50400FF2103F020
S11319987EFB09202071A07803F010FE10BD10B55D
S11319A80400A079002809D0222058216054FF217E
S11319B8200003F06CFB2000FFF798FF10BDF2B580
S11319C882B0002100910088FFF7C0FD040003D015
S11319D801F03BFF002801D10220FEBDE07940263A
S11319E8304241D127000837797F06220A40022A6B
S11319F802D10643E67137E00225480716D504F0FC
S1131A0805FD04000020207038886080B888A08014
S1131A18387F6070F888E0800298057021788048E3
S1131A2805F053F9200004F0E9FF1DE0200001F05F
S1131A38F8FE012801D12A20FEBD684604F035FAD3
S1131A48002801D00720FEBD0099E0790643E6711D
S1131A58200002F0FCFA787F05437D777148428ABA
S1131A680421200003F008FB0020FEBD70B50C0023
S1131A7800281BD10E4D2E0086362800203000F099
S1131A884EFA012807D10021B07803F084FA00281F
S1131A9801D102F0BAF83078001B307028002030E9
S1131AA801F000FB2100288D04F08EFF70BD0000BA
S1131AB8B004002059FCFF1FA70C0020640C002070
S1131AC880B5011D05F0CCFA01BDF8B504000F007E
S1131AD804F09CFC05002F700126200003F067F831
S1131AE801214140697028000C3004F00CF8002CE6
S1131AF810D0208968804F20205C2871002F11D1D4
S1131B08607968715C342088E88060882881A088BE
S1131B18688107E0182004F04BFE000A06402E7185
S1131B2800206880280004F0E8FEF1BD80B50A00B2
S1131B380100002004F087FF01BD10B5040008006F
S1131B48210002F089FF002802D0200004F0B9F92E
S1131B5810BDF7B506000C00A01C8078092804D134
S1131B68300004F0AEF90220FEBDA078F077200022
S1131B7800F0D5F901280BD1A0780100C84AC02388
S1131B88584310188830007803F005FA012804D067
S1131B98A07800F078FA012807D16846027A210073
S1131BA83000FFF7CAFF0D20FEBD30786946087182
S1131BB801256846007906280AD00B280AD1200096
S1131BC802F0F5FF012805D100204821605401E006
S1131BD848216554200000F044FA070002AA2100B5
S1131BE8300000F02AFE6B2025546846007A0090E5
S1131BF83300684602793900A07803F01DFD0323F9
S1131C086846027A3900A07803F0F9FC3900A07814
S1131C1803F055F9300004F054F90020FEBD00002B
S1131C281D04000020FCFF1F002800D1022070477B
S1131C38002900D041817047F0B585B00300080041
S1131C4869469C07A40F0C73D904C90E6B46198006
S1131C58002A5BD18020000169464880904C684680
S1131C68008800280CD16846408804F0A1FD0100D2
S1131C7820342000FFF7DCFF002003F026FE45E0B7
S1131C88260069363D2500276846007B401E01284A
S1131C983FD9801E00D086E0029702A804F013F909
S1131CA8002807D03078012830D12034200000F0F3
S1131CB8B8FD2BE00298019068460388019A002138
S1131CC8408804F07BFD6846408804F071FD0100FB
S1131CD820002030FFF7ACFF002003F0F6FD6A4631
S1131CE821002031019800F03AFE0028019807D01D
S1131CF804F0F5F8F57320342000FFF745FE05E0FD
S1131D08C77701992034200001F0CAFF012005B0EB
S1131D18F0BD0297208D019002A804F0B8F80028BD
S1131D2801D00020F3E7029F684603883A1D00218A
S1131D38408804F043FD6846408804F039FD0100FA
S1131D4820002030FFF774FF002003F0BEFDF07E72
S1131D58002803D0380004F0A6F8CBE76846037BD4
S1131D686A4621002031380000F03CFE002803D0E8
S1131D78380004F098F8BDE76846007BC046C046C2
S1131D880199397001990904090E00010843787012
S1131D9868460088B87068460088000AF8703800F9
S1131DA8FFF78EFEB2E73078012803D120342000F3
S1131DB800F037FD60E7F8B500270025B74EF07945
S1131DC8002820D1AC2004F0F3FC000B04E0AC2084
S1131DD804F0EEFC000B6D1C002814D0E8B280203F
S1131DE8000104F0E5FC04000022E9B2FFF724FF37
S1131DF80128ECD02A4884838777C5770121F171BB
S1131E08203001F04FF9F1BDF0B5020000200024A4
S1131E1801230AE01500E5401D40661C1700F74041
S1131E281F40BD4200D0401C641C4D1EAC42F1D37F
S1131E38C0B2F0BD10B50400A04860402DD0002207
S1131E480123934098421ED0521C202AF8D3002222
S1131E587F202100D1407F230B407F2B13D00140EA
S1131E6811D0521C192AF4D3A0B20100220C9142B9
S1131E7803D1000AC9B2814205D01F212000FFF70F
S1131E88C3FF192801D3002010BD0621A00EFFF7B7
S1131E98BBFF02288041C043C00F10BD00000000F2
S1131EA8B004002010B50400F0200001844209DACF
S1131EB82000FFF74BFB002804D00089844201D19D
S1131EC8012010BD002010BD8C498A79521C92064D
S1131ED8920E8A7138211140890101435007000E7E
S1131EE80843704710B56D4CE079002816D003F00C
S1131EF873F88248827FC17F808BFFF79DFE01289B
S1131F080CD10020E07103F0FBFC0400AC2004F0C9
S1131F184FFC010B02D02000FFF7C6FB10BD6A304E
S1131F280078002800D00120704770B505006A20A9
S1131F38285C00282DD1AC1CFF20E0776F4821785D
S1131F48C0225143411889310A78521C0A702178F9
S1131F58C0225143411889310A78052A01DB00223D
S1131F680A702178C0225143401888304678067098
S1131F782178300003F00FF8002807D102206A35D1
S1131F8828703100207803F05BFE70BD01206A35AB
S1131F98287070BD38B504006A20205C012812D16D
S1131FA8A1785648C0224A4380188830057828000A
S1131FB802F0F1FF002806D102206A2160542900AA
S1131FC8A07803F03DFE31BDF8B505006A20285C11
S1131FD8002845D0A878009048480099C022514369
S1131FE8461888360099307802F0E9FF012803D1B1
S1131FF803206A352870F1BD3478641CE4B2052CDA
S113200800DB002400206A216854FF2777703770AA
S1132018B070002200210098C0B203F025FEA81C6D
S1132028C17FFF2904D0280002F025F9A81CC7772E
S113203801F0EBFD052600200090220069462800E7
S113204801F03BFC0098002803D00146280002F068
S1132058E9FE641CE4B2052C00DB0024761EEAD1F8
S1132068F1BD10B50400FFF75AFF012807D1234832
S1132078A178C022514340188830007810BDA07858
S113208802F00EFF10BD002801D06B2000E0A44828
S11320980078012800D0002070470000C00B002001
S11320A800E000BF01000020490704D59D490978D4
S11320B8022900D10120704700000000D6BE898E95
S11320C810B50400E0060BD596480078022802D122
S11320D8002000F0D5F894480068010000D080473B
S11320E8A00709D591480168080005D090480078F0
S11320F8002800D00120884710BD0000B00400204B
S1132108FEB50600002069464872022001F0A4FBCF
S1132118002801D00C20FEBD022102A8FFF7F8F91F
S1132128012854D16846007A002850D1814C2500F2
S11321386C3528706870A870062002F034FD200001
S113214822300090F08900994882B08900998882E9
S1132158308A0099C882708A00990883F08A0099A5
S11321684883B08A009988832000203002F024FA3A
S1132178070002AB5B1C012239002000203001F06B
S1132188FCF8388A6882B88C2882788AA882F88C05
S1132198E882A86C03F0B1FE0020A864288A012014
S11321A8C0466873288A0020C046E881A01C0190B4
S11321B807780622B11D2000E03001F089FB307950
S11321C8012806D10020E8700420384308E00920DB
S11321D8FEBD7079E870B01D03F050FCFB20384058
S11321E80199087001984078317E012902D10421AF
S11321F8014301E0FB2101400198417000980178F6
S1132208300003F043F92034200000F001F8FEBD4B
S113221810B50400A07804F09FF9200000F03EF9FE
S1132228002010BD70B50E000C24022001F014FB30
S113223805000020002D10D000242A89002195488B
S113224804F0C9FF02212800FFF73FFCA87803F037
S1132258A3F92800FFF74AFB02203070200070BD64
S113226810B5002033498C4AFF2313540C182374E7
S1132278401C0428F9DB1F2313540818037410BDE9
S1132288F8B5C74C0026002801D0002501E0250038
S113229820352979022904D000291AD003F08EF9AF
S11322A8F1BD2F004C370121F97603F0D5FA03204C
S11322B82871082002F077FC3E700121280000F004
S11322C80AFF01214F35280003F034FCA07B401C91
S11322D8A073F1BD38B50088FFF738F9040003D0BE
S11322E801F0B3FA002801D1022032BDE07980253B
S11322F8284209D1C10609D50543E571BB48428A7C
S11323080221200002F0B8FE002032BD200001F0B6
S1132318C1F8002802D1E1790D43E57132BD00000E
S11323283B050020D4040020680C0020640C002025
S1132338A70C0020B00400204D300078401E01286E
S113234801D8012070470020704738B504000020E8
S11323580090200002F02BFC012827D1200001F076
S113236874FA002822D001252079C01E012804D936
S1132378001F02D0801E19D004E0200001F051FA99
S1132388012804D14D20205C00280FD104E06846C0
S113239803F08BFD002802D04D34257031BD00991F
S11323A8200001F030FD02204D34207031BDF1B51C
S11323B882B00088FFF7CAF8040006D001F045FA95
S11323C8002802D02079092801D10220FEBD022765
S11323D88648807A384069460871200002F0E7FB95
S11323E806000025201DC07820210143201DC1704E
S11323F8200002F0E1F80090002801D10720FEBD7A
S1132408029901F039F94E20205C002804D00328F1
S113241823D005282ED03AE0200001F002FA012842
S113242804D0200001F009FA012805D16846007992
S113243806431CD1112504E0200001F085F90500AC
S113244809D0201DC078DF210140201DC17029005A
S1132458200001F08EFA2800FEBD012E17D1232298
S11324680F21200002F088FA009801F0F7F84E34A2
S11324782770F0E723220F21200002F07DFA00984C
S113248801F0ECF80421200001F08FF8D7E72325A8
S1132498D7E700000E200000C00B0020F8B50500A7
S11324A803F0B4FF040003F0E3FF060003F0E6FFC3
S11324B8070003F0F6FF6946487003F0E9FF694630
S11324C808703804390C08432070010A6170010C43
S11324D8A170000EE0705920285C20716671300AE2
S11324E8A071300CE0712F005A3738882072388870
S11324F8000A60727888A0727888000AE072B88846
S11325082073B888000A6073F888A073F888000AF2
S1132518E073234E0522310010312000103001F001
S1132528D7F90020E87010363100A87803F002F9D2
S11325380020687168460078400169464978084374
S113254800216175A075000AE07504E0288879887F
S113255849004018288003F0AFFB0422298803F0BF
S1132568AEF80128F2D029888020800004F023F9ED
S11325781821200003F04EFBF888C000798804F085
S11325886BFE81B28220800004F015F9A87802F06D
S1132598DCFF3989A87802F0ACFF02F0E9FFF1BD4D
S11325A8B004002070B500240022574DA95C002017
S11325B801E04908401C002905D0CE0700D5641C59
S11325C8E4B2022CF5DB022C03DA521CD2B2052A3F
S11325D8ECDB022C09DA4D498A18D37B0121C0B2FD
S11325E8082800DA81401943D17370BD20FCFF1F0D
S11325F8F8B505004648017804220A430270012010
S113260801F02AF9040003D1280002F0D7FFF1BD34
S1132618A71C0320B87026004C360025F5767D707B
S1132628200000F020F802F0BCFE092002F0BBFAFA
S1132638387803F026F90121200000F04CFD3570AC
S11326487570B570314CA07B401CA073022001F05A
S113265803F9050006D0E034200003F00FFA28003F
S1132668FFF7D6FDF1BDF8B50400A71C401D009086
S11326782300603322005E3221005C31387803F095
S113268841FB26005A36F0888000718804F0E4FD86
S1132698411EB28888B2904204D2B08089B2387898
S11326A802F049FF002120004F3003F043FA802054
S11326B804F07EF8308003F0EBFE3288921C92B26C
S11326C8F97800F029F803F0F4F803F0E1FE7288D1
S11326D8F97800F021F8050003F0E2F87188B08871
S11326E8414389B2387803F042FB0A480078291834
S11326F889B2200003F012FF3189387802F0F9FE1C
S1132708387802F029FFF1BDC00B0020B004002086
S1132718A70C002059FCFF1F10B5072308A4184074
S11327284000205A0B405900615A40185043C008D1
S1132738642104F094FD002800D1012080B210BD6A
S1132748F401FA00960064004B0032001E001400E5
S113275838B504000D0002F02AFA012806D1002237
S11327682421200001F08AFC242032BDE87A0102E9
S1132778A87A0143A07802F0B9FF012807D12820DC
S1132788582160542000FFF7FFF8282032BD0020AC
S113279832BD01002830002242600B0026331A7033
S11327A802605A7048310A704A70704730B585B073
S11327B8040025009835082229681831684601F074
S11327C887F80822296820316846083001F080F823
S11327D81021684603F093FB10212868083003F0A1
S11327E88EFB3034220029680831684604F093FDD2
S11327F805B030BD10B50400FFF7CBFF200000F092
S113280858FF00204C34207010BD816A491C816235
S113281806D12721415C491C4906490E273001701D
S11328287047C16A491CC16206D12621415C491C12
S11328384906490E263001707047F4B58CB007007C
S11328480C004820205C002839D01678002E01D1CD
S11328581F2034E00025200002F0A9F9012800D146
S1132868012503206946087708A801902000443010
S11328780090230040332A002720215CA06A03F03B
S113288829FE0020069004200590B81904900397A7
S11328982000303002900D20019008A800900123F8
S11328A807AA3100380004F0A1FD050001D1361D46
S11328B8F6B20C9806702000FFF7A7FF28000DB0A9
S11328C8F0BDFCB58BB006000D004820285C00283C
S11328D804D02800FFF723FB012801D100203CE0A5
S11328E80B980488002C01D1022036E00027280028
S11328F802F05DF9012800D1012707A801902800FA
S1132908443000902B0040333A002720295CA86A01
S113291803F0E0FD00200690042005903019001D06
S11329280490301D03902800303002900D2001904F
S113293807A8009001230CAA2100301D04F056FDBD
S1132948070001D1241DA4B20B990C80B470200A8D
S1132958F0702800FFF759FF38000DB0F0BDF4B54A
S11329688CB007000C0020002C30407F002837D0A2
S113297816780025200002F01AF9012800D0012554
S113298803206946087708A8019020004430009085
S1132998230040332A002620215CE06A03F09AFDD4
S11329A80120069004200590B819001F049003978D
S11329B82000303002900D20019008A800900123D7
S11329C807AA311F89B2380004F010FD050001D1AF
S11329D8361FF6B20C9806702000FFF722FF280075
S11329E80DB0F0BDFCB58BB006000C001788FFB223
S11329F820002C30407F002836D00025200002F02B
S1132A08D6F8012800D0012507A8019020004430F9
S1132A180090230040332A002620215CE06A03F05A
S1132A2859FD0120069004200590F0190490301DEA
S1132A3803902000303002900D20019007A80090E8
S1132A4801230CAA391F89B2301D04F0CFFC0500FC
S1132A5807D1381FC0B20B9908802000FFF7E1FEA8
S1132A6801E00B98078028000DB0F0BD38B50400CC
S1132A78082102F00CFB1021200002F008FB251DA0
S1132A882878401F012802D9C01E0ED031BD01226A
S1132A980021A88804F01FF807202870200002F0FD
S1132AA886F8012805D1052004E0A98804F030F847
S1132AB8F2E70E2021004C31087000250D76200025
S1132AC8FFF782FA200000F0F4FD200000F08CFBF0
S1132AD82000BC300178012905D1057021009C3102
S1132AE8200001F0CDF8200000F0F6FD31BDFEB560
S1132AF804000F00082102F0CAFA1021200002F095
S1132B08C6FA002504202179082902D0092904D00D
S1132B1804E069460870012603E009206946087044
S1132B2800262000FFF735FE4C21655468460078DE
S1132B382071200000F0BDFD68460079002E20D1E8
S1132B48012805D100223900201D808803F0C3FF25
S1132B5821004C310D766846007A01281BD02000EC
S1132B68FFF732FA2000BC300178012905D105703D
S1132B7821009C31200001F083F8200000F0ACFD16
S1132B88F7BD012804D1201D8188380003F0C0FF57
S1132B9820004C30057620004C300773200001F0EB
S1132BA8C5F80500B948428A0121200002F064FAF8
S1132BB8002DE5D109202071F7BD10B5040001F0FE
S1132BC8F6FF012809D10821200002F060FA002349
S1132BD801221A212000FFF78AFF10BD38B504002E
S1132BE80D0001F0E4FF012809D10821200002F0BA
S1132BF84EFA0023012229002000FFF778FF31BD97
S1132C0838B504002079032804D004280BD00728F9
S1132C180BD006E005250121200000F063F8002808
S1132C2809D00D2032BD0625F5E70825200000F05F
S1132C38B1F80028F5D1200000F034FA25710020FD
S1132C4832BDF8B5050000272888FEF77FFC04008C
S1132C5818D001F0ACFF002801D10C20F2BD8B483C
S1132C68807AC00701D41120F2BD200000F0EDFDE8
S1132C78002807D02079C01E012805D9001F03D0D9
S1132C88801E05D10220F2BD4C20205C012801D110
S1132C980D20F2BD200000F0FCFC060001D1072045
S1132CA8F2BD0822291D00F013FE3000283069887F
S1132CB801706988090A417010220C352900083608
S1132CC8300000F005FE20004C308078002803D046
S1132CD801204C34207003E02000FFF791FF070027
S1132CE83800F2BDF8B504000D00002000906846D5
S1132CF803F0DBF8002801D00D20F2BD009E20006F
S1132D08403004F002FD27004C37F86C183004F00A
S1132D18FCFCF86C1C3004F0F8FC012D02D12000F6
S1132D28FFF703F93100200001F02CFB5748428AD1
S1132D380821200002F0A0F9022038700020F2BD1A
S1132D4810B50400FFF732FD03204C216054200025
S1132D5800F0A8F910BD10B582B00400002000905E
S1132D68684603F0A2F800280FD10099200001F06A
S1132D78B7FA4648428A0821200002F07DF9042067
S1132D884C216054200000F08DF913BD80B5FFF785
S1132D986DFE01BD38B5040000200090684603F0BC
S1132DA884F8002801D00D2032BD009D2000FFF7D3
S1132DB8BCF82900200001F031FB3448428A08217C
S1132DC8200002F059F906204C342070002032BD4E
S1132DD838B5040000200090684603F066F800281F
S1132DE810D1009D2000FFF7D4FC2900200001F039
S1132DF87CFA8948428A0821200002F03DF907201C
S1132E084C34207031BD80B50021FFF76BFF01BD44
S1132E18F8B504000D0000200090684603F045F85A
S1132E28002801D00D20F2BD009E27004C37F86C15
S1132E38203004F06AFCF86C243004F066FC2000AE
S1132E48443004F062FC002D02D12000FFF76DF835
S1132E583100200001F0F2FA0C48428A08212000CF
S1132E6802F00AF9200000F0ADF8002807D020008D
S1132E7800F022F8002807D00920387004E0082060
S1132E883870200000F00EF90020F2BD20FCFF1F6E
S1132E9880B54C21415C082904D00CD30A2908D0F8
S1132EA804D301BD0B214C30017001BD00F004F8BE
S1132EB801BD00F095F801BD70B5040026004C363C
S1132EC82079401F012802D9C01E0ED020E0032219
S1132ED80621200001F0D2F84F48428A0821200038
S1132EE802F0CAF81120307010E006203073200078
S1132EF800F01CFF0500B08A0A2242430121200089
S1132F0802F0BAF8002D01D109202071002070BD0B
S1132F180C2070BD10B5040001F049FE012809D049
S1132F284C20205C112805D1002300220621200012
S1132F38FFF7DDFD10BD10B582B00400002000903D
S1132F48684602F0B2FF00280CD10099200001F075
S1132F58C7F93148428A0821200002F08DF80D2073
S1132F684C34207013BD80B5FFF780FD01BD70B5EA
S1132F7882B0040000250095684602F096FF0028F8
S1132F8801D00D2076BD009E200000F082FB0820B1
S1132F9820712000FEF7C9FF3100200001F0A5F9D7
S1132FA82000493005700F21C170200000F07AF824
S1132FB8002076BD10B50400FFF7EBFB10204C345D
S1132FC8207010BD10B5040003F020FA2189018097
S1132FD89834216841602831816003F04CFD10BDAC
S1132FE810B582B0040000200090684602F05DFF2E
S1132FF8002801D00D2016BD0099200001F033FAF5
S11330080548428A0821200002F036F80C204C3486
S11330182070002016BD000020FCFF1F70B50500BD
S11330282888FEF793FA040001D1022070BD260017
S11330384C363078082801D00B2817D11022A91C47
S1133048F06C083000F044FC2000FFF7AFFB307848
S1133058082804D02000FFF7C3FF002801D00A2065
S11330683070200000F01EF8002070BD0C2070BDE8
S113307810B50088FEF76AFA040001D1022010BDD9
S11330884C20205C082801D00B2809D12000FFF728
S113309813FF002802D009204C342070002010BDF2
S11330A80C2010BD20B50021020066321579002DD0
S11330B803D11278002A00D00121834AD279002A48
S11330C800D00021801C8278092A00D101210078CF
S11330D802F001FC20BD38B505000C0001F067FDC5
S11330E800280CD1022C10DB28004D30417800292F
S11330F805D10078022802D02879092801D10124B1
S113310803E0280000F00FF80400200002F01BFE82
S113311831BD80B503F0BCF902220021FFF7FCFAA7
S113312802F0C7FB01BD80B5807804F074FB002869
S113313800D00120C0B202BD10B582B000240094B2
S1133148002800D1614C684602F0AFFE002816D171
S11331580099200000F07BFF2520205C0221014318
S113316825202154C948428A0421200001F084FF03
S1133178200000F08FF902212000FFF7ACFF13BDF7
S1133188002800D0704780B5C1482421415C072934
S113319802D1203000F00AF801BD002800D07047A1
S11331A880B5BB48008D03F011FD01BD10B582B098
S11331B8040000200090A079002814D14C20205C41
S11331C8052801D00E280ED1684602F06EFE0028AC
S11331D809D10099200001F0BCF9AC48428A1021B9
S11331E8200001F049FF13BD0200801CC189002999
S11331F800D1704710B5A54B9B7ADB0613D55C321A
S113320853885B1C128853439BB25C03240C00D183
S11332180124DA03120C01E0121B92B28A42FBDA8F
S1133228007802F0E3FD10BD38B50D0000212970C7
S11332380088FEF78BF9040003D000F006FB002891
S113324801D1022032BD9148807AC00601D41120F0
S113325832BD02202870228A0021208903F072FCE2
S1133268002032BD70B504000E002088FEF76EF908
S1133278050003D000F0E9FA002801D1022070BD4E
S11332888248807AC00601D4112070BD6188280064
S11332985C304288521C008842431004C00C8142AE
S11332A801D2122070BD2C1DA1812078072802D1DB
S11332B82800FFF799FF022030700021A08803F04E
S11332C865FC002070BD0000C00B0020D004002065
S11332D838B50500002008702888FEF737F904007F
S11332E801D1022032BD4E20205C052801D00728D8
S11332F817D1200001F060F969884180A98801800C
S1133308E98881802989C18069894181A9890181E4
S1133318200001F04CFC002805D1200000F069F9D8
S113332804E00C2032BD200000F0F3F8002803D09C
S11333380100200000F01DFB002032BD70B5040020
S1133348002008702088FEF701F9050001D1022049
S113335870BD4E20285C052801D007280BD1A2781F
S11333680F21280001F008FB0600A178280000F0CE
S113337800FB300070BD0C2070BDF4B584B00500AE
S11333880C00D44E608D002807D120866086A6865E
S1133398E68626876687A687E6876188A81C0029AB
S11333A80AD06A46D1802788A18891806189918151
S11333B821895181E1881FE0818A00290AD06A465F
S11333C8D180478AC18A9180818B9181418B5181B7
S11333D8018B11E0290054310F896946CF802900F7
S11333E8543149896A46918029005431C9899181A7
S11333F851812900543189891181007800906846E7
S113340883883A00C188208E03F088F9A082218D30
S11334180091638D020039006846C08803F0F0F813
S1133428A081000CE0816846027CA189E08903F050
S11334380AF90300A384684642898189007C03F061
S11334480CF9E08468468088C046C04620826846F5
S11334580089C046C0466082280000F0F6F90128B9
S113346811D1280003F016F9E082A18E0091638E31
S113347854352A88A18C03F01AF920836683A6831D
S1133488E6832684668405B0F0BD000020FCFF1F97
S1133498B004002070B582B0040000200090C24D32
S11334A8200001F084FB00280FD10821A87A0842E3
S11334B801D1112076BD2000203042790A4204D07F
S11334C80078084201D11A2076BD200000F0A9F93D
S11334D8012801D12A2076BD684602F0E6FC0028BE
S11334E801D0072076BD009E200001F060FB002873
S11334F804D13100200001F0CFF903E031002000AD
S113350800F0ACFC6A8A0221200001F0B5FD00201D
S113351876BDF0B583B005000020019069460870B7
S113352894202E5801A802F0C0FC002801D00720DE
S1133538FEBD019F2021280001F0A9FD2C004E3476
S1133548608AA080208A6080E089E0806B4601223E
S113355831002800FFF711FFB08CE189884207D1B8
S1133568308A218A884203D1708A618A884203D0CA
S1133578E87920210143E971708A6082308A2082C7
S1133588B08CE081F08CA082E0890020C046A08144
S1133598E0890120C046E0723900280000F0EBFB06
S11335A80120207068460078FEBDF0B583B00400A1
S11335B80D000020009094202758684602F075FCFE
S11335C8002801D00720FEBD009E01AB012239006E
S11335D82000FFF7D2FE3100200001F041F87248C4
S11335E8428A2021200001F047FD4E342570002036
S11335F8FEBD30B583B0040000200090684602F098
S113360854FC002801D007203EBD009D01AB0122D7
S1133618942021582000FFF7B0FE2900200001F073
S1133628FAF86148428A2021200001F025FD08208B
S11336384E34207000203EBD38B505000C0002F061
S1133648E5FE29894180618D8180218DC180A18D0C
S11336580181E18D418103F0D2FA32BD0021018557
S113366841858185C1850186418670470021018095
S113367841808181C18170478A8802804A8842805A
S1133688CA8882800A89C2808A89028149894181DB
S1133698704710B582B0040098342068002806D119
S11336A8684602F01EFC002801D1009820602068BA
S11336B816BD10B5040098342068002803D002F021
S11336C81CFC0020206010BD80B5684800F004F898
S11336D8002002BDFFFF000038B5040025004C356A
S11336E800F09FF801281ED0200000F0A6F8012859
S11336F819D0A878022805D009280CD12520205CE7
S1133708000708D5200000F01FF800281AD001008F
S1133718200000F02EF9A878032804D1200000F036
S113372845F800280ED0A878002805D12878012863
S113373802D12000FFF764FA6878012802D120003A
S1133748FEF703FE002032BD10B5040001F02FFA85
S113375802221549897A114203D1012814D0112073
S113376810BD210020314B791B0708D42000FFF736
S113377891FE002816D109214E34217010BD097814
S1133788114207D1012803D12000FFF7C2FE10BD62
S11337981A2010BD012801D1042100E006212000CF
S11337A8FFF703FF10BD000020FCFF1FF8B506005B
S11337B8002400F001FF0090002801D10720F2BD89
S11337C80146300000F02FF90700300001F0EFF94E
S11337D800280ED1012F0AD13000FFF70AFF040098
S11337E803D02100300000F0C4F82000F2BD072502
S11337F806E0012F03D13000FFF78BFEEFE7052524
S1133808002FF2D100993000FFF716FF040005D00D
S11338181A220F21300001F0AFF8E0E74E36357078
S1133828E3E74C300078012803D9401F01D0093858
S113383801D100207047012070474D3000780228DC
S113384801D101207047002070470079022801D86F
S11338580020704701207047010005482422825C3B
S1133868914201D12030704700207047D0040020D5
S1133878B004002010B50120FFF7EEFF040003D0C8
S113388800214F3002F056F93C212000FEF71DF9C3
S1133898002C02D0A078FDF74FFE10BD80B50120A2
S11338A8FFF7DAFF002802D08078FDF745FE01BD56
S11338B89200801880300160704700230B60052A4D
S11338C805DA92008018803002680A600360704745
S11338D8002A04E00B780370401C491C521EF9D1DD
S11338E87047002A07D08018401E0B780370401ECA
S11338F8491C521EF9D1704710B502E0491C401CFE
S1133908521E002A05D003780C78A342F6D0002072
S113391810BD012010BD002A01E0521E8154FCD1C3
S1133928704770B504002068802501782943017028
S1133938266805E0206A0022D243904200D08047DE
S113394830782842F6D0206801783120084070BDCC
S113395870B504000D001600E0794006400EE071D1
S113396802F054FD057021894180866002F098FFB9
S113397870BD70B505000C00202101F088FB2E00F5
S113398894363068002803D002F0B7FA002030607B
S11339982100280000F009F8002128004E300170A9
S11339A82800FFF799FE002070BD38B505000C000B
S11339B8E879810610D5DF210140E97102F026FD7E
S11339C80470298941805C35298881806988C1808F
S11339D8A988018102F0CCFF31BD10B504004E2343
S11339E8E35C1B1F05D09B1E19D05B1E012B11D94C
S11339F817E0072A01D01A290AD1202101F047FB30
S1133A082000FFF786FD00280BD00100200006E007
S1133A183B2904D0232902D1FFF7C7FF01E0FFF7B0
S1133A28A8FF002010BDF0B500220B8D4C8D9C42E0
S1133A380ED105005C352E88A64209D16E888F8D7B
S1133A48BE4205D1AD88CE8DB54201D10120F0BD6D
S1133A584E88002E0AD0B4421AD30888984217D345
S1133A6888888B8D984213D1C8880DE01430468815
S1133A78002E0DD0B4420BD304889C4208D383880B
S1133A888C8DA34204D1C088C98D884200D10122FB
S1133A981000F0BD10B504000121A07801F01BFF4F
S1133AA801212000FFF717FB10BD38B504001500ED
S1133AB8E278501E8041C00FE0700A00E178A078D7
S1133AC801F063FE2900A07801F04EFE31BDF8B57F
S1133AD804000F001600250052352A89E979A078D8
S1133AE801F01BFD002E08D102F0D2FC2A89A11C8A
S1133AF8C978FEF711FE01F0DCFE2B88E8898342C1
S1133B0800D20300AA896989A07801F0D4FCE88965
S1133B18C000698903F0A0FB81B2ED20800002F0A7
S1133B284AFE28882989C90841180A3189B2CA482D
S1133B38814200DB411EA07801F0E5FC3900A07841
S1133B4801F063FE01212000FFF7C5FAF1BD000072
S1133B5838B50C00002819D1D74D28008A30002127
S1133B6841700078032803D128002030FEF72CFA8E
S1133B782800203000F034F8142C05DA2035280009
S1133B8803A1A20089588847FFF79EFD31BD0000B4
S1133B98C53E0000C73E0000BF4200002F4400009D
S1133BA84B4500005345000047430000DD42000038
S1133BB8C93E00005540000031440000674300003E
S1133BC8DF420000E1420000DD420000DD42000067
S1133BD8DD420000594A0000DD420000DD420000D9
S1133BE810B50400FEF79BF901280BD1A078010059
S1133BF8B14AC023584310188830007801F0CBF933
S1133C08012801D000F001F810BD30B583B0AA4CEA
S1133C182000203000F058FF002830D18B20205C91
S1133C2800282CD101AA69462000203000F02EFF7C
S1133C38002824D100980578002D05D101462000DC
S1133C48203000F098F80EE0012D05D1014620340B
S1133C58200000F0D8F837BD6846027921002031E9
S1133C680098FDF776FF022D09D101212220205C5E
S1133C7801F031FE0921203420000171C04637BD0E
S1133C8838B505000C0020000078C0460200210069
S1133C98280000BF11A392009A58904731BD000034
S1133CA870B504000E0030000078C04605002000FE
S1133CB8FFF7CBFD00280DD0142D04DB31002000C4
S1133CC800F0E9FA06E03100200000BF03A2AB00CF
S1133CD8D2589047300002F002F970BDEB3E000064
S1133CE88F3F0000CF40000079440000DD4300000E
S1133CF813440000094300001B410000F33F000087
S1133D08793E00003545000025430000814100004C
S1133D1875420000D9480000694700003348000094
S1133D28C54900007D450000B745000038B50500C9
S1133D3800200090684602F0B8F8002801D01F203F
S1133D4832BD009C022020705820285C6070A8783E
S1133D58E0772800FFF79EFE022229002000FDF7E5
S1133D68F8FE32BD80B50300080007210170997878
S1133D78C1770222BFE2F0B583B005000C0094209D
S1133D882F58A87801F0CEFC2E005A36009601ABC5
S1133D983A000100280002F0CBFCA87801F0C2FC2C
S1133DA86946898801F082FC002020705920285C2B
S1133DB860703088A0703088000AE07070882071C4
S1133DC87088000A6071B088A071B088000AE07138
S1133DD8F0882072F088000A607268468088A072B1
S1133DE868468088000AE0720C2229002000FDF74A
S1133DF8B0FE040005D10122684681882800FFF737
S1133E0866FE2000FEBDF8B506000D0001202870EE
S1133E18294C052221001031681CFFF759FD5E204A
S1133E28315A491C0A20414389B2B07801F06DFC2B
S1133E380700A871000AE871082231002800FDF77C
S1133E4888FE050005D13A00103421003000FFF740
S1133E582CFE2800F2BD0000810C000038B50500D6
S1133E680C00E87910210143E971082000F01CFDD9
S1133E7870B504000E00804D6A8A022101F0FCF836
S1133E880221200001F003F9E01DA97A72780A40A2
S1133E98D106C90E4176817F08220A4382770178C8
S1133EA8EF220A400270721C00212000FFF750FD27
S1133EB82000FFF711FC70BDB00400207047704764
S1133EC8704738B505000C0009202070082200212D
S1133ED8601CFFF720FD2020285C6070664800F015
S1133EE8EEFC70B505000C00FEF732FC002849D141
S1133EF82021280001F0CBF82E0052366078F071AA
S1133F08E07800023081A1780843308160790102A9
S1133F182079014320207289914203D0EA7902432F
S1133F28EA717181E1790902A2791143B289914256
S1133F3803D0EA790243EA71B181617A0902227AEB
S1133F481143F2893280F289914203D0EA7910430D
S1133F58E871F181F0898000718903F07DF9401ED0
S1133F68B18980B2884200D90800B08101212800B3
S1133F784E3001700022E07A0102A07A0143280041
S1133F88FFF7A5FD70BD70B504000D0000F00FFE2D
S1133F98012805D101222421200000F06FF870BD0A
S1133FA8A01C8178042901D007291DD1E9790E02C2
S1133FB8A9790E433100007801F098FB012806D155
S1133FC82820582160542000FDF7DEFC70BD320023
S1133FD8691C2000FFF769FD022120004D300170A3
S1133FE801212000FFF777F870BD70B582B0040096
S1133FF80D0000200090261D3078042801D00728E1
S113400823D1200000F0D3FD012805D10822242162
S1134018200000F033F873BD684601F046FF00281D
S113402813D100991448807A6A780240D006C00EE9
S113403830772520205C08220243252022542000C2
S1134048FFF73FFF2000FFF747FB73BD704710B52C
S11340580B0009490A880C241C700C795C709A704E
S1134068120ADA70C9881971090A597106220100FD
S1134078180000F09FFC000020FCFF1F70B582B000
S113408804000D00160000200090684601F00DFFA2
S1134098002801D0072076BD0098210020314A79F4
S11340A8120707D50978490704D52B003200010007
S11340B800F073FC0D210170457002222100FDF708
S11340C848FD002076BD70B505000E00AC1CA07834
S11340D8401F012801D9C01E02D12800FEF78AFB1F
S11340E8707858216854092128000171C0462800B5
S11340F8FFF7D0FC280000F05AFD0128207802D1EF
S113410801F069FA01E001F059FA2800FEF7CAFF44
S113411870BD70B504000D006878032802D1200032
S1134128FEF74BFD6878122803D11021200000F017
S1134138AEFF68780E2814D10221200000F0A7FFF2
S1134148E61D3078EF210140317000221A21200049
S1134158FFF7FEFBB07F08210143B1772000FFF78A
S1134168BBFA68780F2801D0102804D12A781A21BC
S11341782000FFF732FC70BDF2B582B004000027BE
S1134188009725004C353D2600F011FD002808D184
S11341982000FFF746FB012803D12E732000FDF70A
S11341A8F3FB200000F003FD01280BD12000FFF7EA
S11341B838FB012806D12878032803D12E73200060
S11341C8FDF7E2FB0421200000F061FF250008351B
S11341D80298407828770298C0780002A88002994B
S11341E889780843A880029840790002E8800299F7
S11341F809790843E880687F04210143697720002E
S1134208FFF70FFB012809D12022029920009C30D6
S1134218FFF75EFB0120BC342070F7BD0226687FDF
S113422830420BD1684601F040FE00281DD10099A8
S11342382000FFF70CFF687F06436E77E07941069C
S113424810D5BF210140E17102F0E0F80090077039
S113425829884180A9888180297F4170E988C180A3
S113426802F0CCFB2000FFF737FAF7BD80B5497898
S1134278FEF7B4FC01BD38B505000C000020009021
S1134288684601F012FE002804D100994C702800F9
S1134298FFF768FD31BD38B505000C00FDF73FFE9A
S11342A8002804D121782800FFF7E5FF31BD2078E4
S11342B82135287031BD10B50400FF2100F0E7FE58
S11342C8162058216054A07801F078F92000FEF7F0
S11342D8E9FE10BD7047704780B5FEF71BFE01BDAF
S11342E880B503000800062103E080B50300080038
S11342F80B21017001221900FDF72BFC002002BDDF
S113430880B54C21415C042902D00C2903D001BD9D
S1134318FEF73CFD01BDFEF70EFE01BD10B504001D
S11343284C342178062902D00F2905D010BDFEF798
S11343384FFD0120207610BDFEF73CFE10BD38B5B8
S113434804002500493500F032FC012800D128700A
S1134358E8780D2802D12000FEF705FE31BD38B5F6
S113436805002C004934E078072805D12800FEF719
S113437810FA2800FEF747FDE0780F2801D1002045
S1134388207031BD70B505000C00032020702E008C
S1134398983608223168601CFFF79AFA02223168BD
S11343A8283120000930FFF793FA082231681831C0
S11343B820000B30FFF78CFA04222900403120003A
S11343C81330FFF785FA172229002000FDF7C1FBF7
S11343D8002070BD70B505000C002E004C363078F6
S11343E8022811D10822491CF06C2030FFF770FA1A
S11343F804220934210028004430FFF769FA280010
S1134408FEF79EFC0120307670BD4C21415C0329E7
S113441800D0704780B5FEF79EFC01BD80B503004F
S113442808000A2165E7704710B5040000F0BFFBD7
S1134438012802D100204834207010BD38B5050089
S11344480C00042020700822982029582031601C70
S1134458FFF73EFA04222900443120000930FFF70F
S113446837FA0D222EE280B503000800052140E743
S1134478F8B504000E0000F09AFB012855D09448C2
S1134488807AC00701D41A210EE001274C20205C51
S1134498002802D0102816D017E000252000FFF7C6
S11344A8F8F8002813D1072103222000FFF7E6FDBE
S11344B88748428A0821200000F0DEFD11212000EF
S11344C84C300170F1BD0125E8E71F21ECE7082213
S11344D8711C20004C30C06CFFF7FAF9022231003D
S11344E8093120004C30C06C2830FFF7F1F908225C
S11344F831000B3120004C30C06C1830FFF7E8F95C
S113450804221336310020004030FFF7E1F9290076
S11345182000FEF77DFC002807D1002D03D10621D9
S113452820000171C0464C342776F1BD10B5040053
S11345384C3421780E2903D1FEF719FD0120207689
S113454810BD80B5FEF7A4FC01BD012149300170FE
S1134558704780B503000800122103E080B503000A
S11345680800132101709978C17701221900FDF719
S1134578F0FA02BD38B505000C000020009054483C
S1134588807AC00604D52800FFF74BF9012804D126
S113459821002800FFF77FFE31BD684601F085FC45
S11345A8002803D100992800FFF7D8FF31BD80B552
S11345B8102100F06CFD01BD10B582B004009434E4
S11345C84E30007800280DD1206800280AD16846AA
S11345D801F087FC002805D1009820600021C181E2
S11345E841854180206816BD94300068C2894A70AC
S11345F8C289120A8A708289CA708289120A0A7167
S1134608028A4A71028A120A8A71428ACA71428AE1
S1134618120A0A72828A4A72C28A8A72C28A120A7E
S1134628CA72028B0A73028B120A4A73428B8A7308
S1134638428B120ACA73828B0A74828B120A4A74D6
S1134648C28B8A74C28B120ACA74028C0A75028CD1
S1134658120A4A75428C8A75408C000AC8757047DC
S113466838B505000C000F2020702800FFF7BCFFA8
S1134678182227E150B5418D028D8A4223D3062999
S113468821DB1100B94B99421DDAC38D0A3BB84CA2
S1134698A34218D2838DFA246400A34213DA038E4A
S11346A89A4210D3343000220623B24E0488B4420E
S11346B805D0A24200DA2200801C5B1EF6D1002A33
S11346C803D0914201DA1E2050BD002050BD0000E5
S11346D820FCFF1F8878000250854B7818435085CA
S11346E8087900021085CB78184310858879000270
S11346F890854B7918439085087A0002D085CB7948
S11347081843D085487A1086C87A000250868B7A76
S113471818435086487B000290860B7B184390868A
S1134728C87B0002D0868B7B1843D086487C000265
S113473810870B7C18431087C87C000250878B7C39
S113474818435087487D000290870B7D1843908753
S1134758C87D0002D087897D0843D0870020704730
S113476870B504000E00B948807A800700D48BE045
S11347782000FFF762F8012801D12A2216E04E2012
S1134788205C00280CD0022803D0062808D0092869
S113479804D1200000F00BFA002801D0232205E000
S11347A82000FFF709FF050002D107220F216FE05F
S11347B82A0031002000FFF78DFF2800FFF75AFF79
S11347C8002809D01E220F21200000F0D5F81E2150
S11347D82000FFF7CEF870BD4E20205C022803D0DD
S11347E8062801D0092802D12800FEF73FFF20003F
S11347F8FFF717F801280AD14E20205C002801D0C1
S1134808022804D1032120004E30017070BD20001D
S1134818FEF7CCFF70BD38B505000C0010202070E1
S11348282800FFF7E1FE18224CE070B504000E00E2
S11348388648807A800700D426E04E20205C04282D
S113484802D02422102123E02000FFF7B5FE050042
S113485819D02A0031002000FFF73CFF2800FFF799
S113486809FF002806D01E221021200000F084F839
S11348781E2105E02000FEF74CFE002803D00100AD
S11348882000FFF776F870BD2000FFF704FD70BD27
S1134898200000F071F870BD38B505000C00E87907
S11348A810210143E9710E20207008220021601CA8
S11348B8FFF731F86548817AC906C90E6170C07A74
S11348C8A070092229002000FDF743F9002032BD19
S11348D8F8B504000F00002000902079001F042878
S11348E843D82000FEF79DFF012809D12022390072
S11348F820009C30FEF7ECFF0120BC342070F1BD91
S11349080825524EB07A284204D139002000FFF716
S1134918C2FCF1BD200000F04AF9002805D10E229E
S113492824212000FFF7AAFBF1BD684601F0BDFA77
S113493800281AD10099B07A284205D138784870ED
S11349482000FFF70FFAF1BD7A780240D006C00EB6
S1134958221D10772520205C05432520255420009E
S1134968FFF7AFFA2000FEF7B7FEF1BD810C000097
S1134978770C0000FFFF000070B582B004000D0042
S1134988160000200090684601F08FFA002801D034
S1134998072076BD33002A000099200000F001F8B2
S11349A876BD10B5040008001121017042708370AF
S11349B803222100FDF7CDF8002010BD70B582B0A8
S11349C805000C002148807A40070DD4002000908F
S11349D8684601F06AFA002836D1009920784870B0
S11349E82800FFF7BFF973BD6078032803D1A178C5
S11349F82800FEF7F3F86078122803D11021280064
S1134A0800F045FB60780E2814D10221280000F03C
S1134A183EFBEE1D3078EF21014031700022A17871
S1134A282800FEF795FFB07F08210143B1772800DD
S1134A38FEF752FE60780F2801D0102804D122789E
S1134A48A1782800FEF7C9FF73BD000020FCFF1FF2
S1134A5880B5FEF75FFA01BD10B503007C331C78FE
S1134A68042C01DBFF2010BD5C78A4000019C1668A
S1134A78CA771878401C18705878401C5870C0B20F
S1134A88042801DB00205870002010BD30B5002335
S1134A9804007C342578002D14D0A578AD00451980
S1134AA8ED6E0D60E97F11708078E8772078401EFC
S1134AB82070A078401CA070C0B2042800DBA3704A
S1134AC8002030BDFF2030BD7C300078002801D0A4
S1134AD800207047FF2070477C300021017041702E
S1134AE88170704720B5002502F0FFFF012800D12E
S1134AF8012503F00BF9012802D1280002250543FA
S1134B08A3482421415C00290BD0022903D005D2F3
S1134B182900012504E02900042501E029000825CD
S1134B280D43457020BD80B59A4801F071FC00F032
S1134B3840FB0020C04600F002F8002002BD70B51A
S1134B48934C002565700120207365736571657643
S1134B58658365756580A571E5738F4E70723F2016
S1134B687071DB20B07102F0DDFE02F0E2FFFDF7A8
S1134B7877FB0020FCF7A4FC3572F571A57370BDB2
S1134B8880B503F0D1F800F002F8002002BD80B52A
S1134B98C2480078002801D100F00BFBFFF7CFFFD3
S1134BA8C046C04601BD80B5FFF79CFF01BD673014
S1134BB80078002800D00120704710B50400207840
S1134BC861780143A0780843E178014320790843D8
S1134BD86179014301D1122010BD01F0F5FB0028D1
S1134BE801D00C2010BD200000F05EFF002010BD95
S1134BF8BA480078704780B56A46B949082001F078
S1134C088FF969460020085602BD80B501F0EDFB16
S1134C18002801D00C2002BD00F080FE002002BD57
S1134C2838B50500002401F0E0FB002801D00C2071
S1134C3832BD691C287800F0B3FEFF280AD100F0C1
S1134C4807FFFF2804D06A1C297800F073FE02E0ED
S1134C58072400E01F24200032BD38B504000025D5
S1134C6801F0C3FB002801D00C2032BD611C207860
S1134C7800F096FEFF2802D000F08BFE00E01F250E
S1134C88280032BD10B5424CE07B00060DD520004B
S1134C982030FDF751FB012807D0E07B4006400E89
S1134CA8E07320342000FDF750FB002010BD80B5D0
S1134CB837486D21415C012902D12030FDF745FBBD
S1134CC8FFF7E0FF01BD38B504000D00102101F025
S1134CD816F910212000103001F011F922001032C9
S1134CE821002000103002F016FB102120001030A3
S1134CF801F005F902202870200003F069F832BD9C
S1134D0880B5007800F049FF022006E080B50278FB
S1134D188178407800F01FFF01201D498876002023
S1134D2802BD10B50C0000F052FF0021184A937E12
S1134D38012B00D1002091760221217003F093F811
S1134D48002010BD10B50C00FCF700FC002802D0B0
S1134D580179002901D1022010BD2200C178807890
S1134D6800F034FD002010BD10B50C00FCF7EEFB7C
S1134D78002803D0FEF769FD002801D1022010BDE8
S1134D882200BC49082001F0CBF8002010BD000027
S1134D98B00400202CFCFF1FC00B002038B50D0008
S1134DA8FCF7D4FB040003D0FEF74FFD002801D123
S1134DB8022032BD6A4621000A31042001F0B0F80D
S1134DC82A000A342100062001F0AAF8002032BD86
S1134DD870B50400607881068D0FE1780E02A17821
S1134DE80E430002217808430005000DFCF7AEFBD2
S1134DF800280FD0022D0DD0032D0BD0002E04D186
S1134E080021008901F0E0FD04E00179092901D0BD
S1134E18002903D1200001F038F870BD210000F00A
S1134E2801F870BDF8B504000E00A71CB87809286D
S1134E3818D0002816D06620205C401C66216054D7
S1134E482000FEF72FF9387800F02AF805002A0028
S1134E583100200000F046F8002806D129003878EF
S1134E6800F02DF8300001F010F8F1BD38B59A4D76
S1134E78052201002800FEF72BFD984C0522290085
S1134E8820001030FEF724FDFDF78CFBE07B802129
S1134E980143E173FFF7F6FE32BD0000AC0C0020BD
S1134EA88E49C0225043081889300178491C017082
S1134EB8C9B2052901DB002101700078704738B5B3
S1134EC804000D00002C03D101218548FEF703F9E5
S1134ED82900200000F088FB31BD000058FCFF1FAA
S1134EE840FCFF1FF0B583B005000C001600607885
S1134EF88006870FE07800026946888068468088C3
S1134F08A1780843694688802800FDF708F86946AF
S1134F1888716846807900281CD13800FCF784FE23
S1134F2807003B0001AA29002000FDF7CAFC6846D7
S1134F388088C0B20090231DFF223100A87800F0B9
S1134F487BFB3B0068468288D2B23100A87800F027
S1134F5856FB04E0320021002800FEF7A9FC68464D
S1134F688079FEBD70B50400002602F04DFC0500F2
S1134F78200002F050FC002101228A40154205D08D
S1134F88104203D1330016001E43B6B2491C05294A
S1134F98F2DB300070BD70B505000C00200002F093
S1134FA833FC0126AE400500200002F034FC010069
S1134FB829433140080000D00120C0B270BD10B5AB
S1134FC80400080002F027FC0121A1400140080068
S1134FD800D00120C0B210BD38B500240020FFF76E
S1134FE8C1FF05000ED02800E040C00707D5210006
S1134FF8002000F03DFB2100002000F004F8641CB0
S1135008052CF0DB31BDF8B505000F00002629009A
S1135018380002F010FC0400002D1ED12F4D28008A
S11350282030FCF7B7FF032C04D10021380002F02C
S113503808FC06003900002000F032FE032C0DD1D4
S113504831000020FEF784FD28002030FEF72AF8FE
S1135058022120352800FEF73EF8F1BD002C04D0CB
S113506801210020FCF702FDEEE73900002000F0E2
S113507817FEF1BD41FCFF1F83791943817100D1EB
S1135088704780B51100807800F01AFE01BD82795E
S11350988A43827100D0704780B5807800F028FE7A
S11350A801BD38B50400002500952A006946200092
S11350B8FEF703FC0098002801D000F0E6FE290062
S11350C8A07800F0E9FA2900A07800F0E9FD6D1C49
S11350D8052DEADB31BD0000C00B0020B004002020
S11350E8D004002038B5040014E038B504000128C1
S11350F806D0022806D0042806D0082806D009E0DD
S1135108EA2004E0EC2002E0EE2000E0F820400071
S113511802F0C2FBA94D102001F04AFB04432C8085
S11351282988102001F047FB31BD38B50400A34D90
S1135138102001F03DFBA0432880F1E738B50400B6
S1135148F8204000012C04D0022C04D0042C04D0F4
S113515804E01C3802E0183800E01438002202F099
S113516885FB964D102001F023FBA0432880D7E748
S113517880B50100082000F0A5FB38B50C0011002B
S1135188012806D002280BD004280BD008280BD0FD
S113519831BD2025082809D1B02001F00CFB05E019
S11351A83825F7E75025F5E7A825F3E72100280077
S11351B8B8E738B5FF210120FFF7C0FF3F210220DF
S11351C8FFF7BCFF1F210420FFF7B8FFFF210820C9
S11351D8FFF7B4FF3020FFF7A8FF8021002001F07B
S11351E8EAFA0020A6490870A6480168080001D018
S11351F80020884700220021012000F091FEA24CE3
S1135208250022356988EA20400001F0D4FAA988EB
S1135218EC20400001F0CFFAE988EE20400001F0CC
S1135228CAFA0021B02001F0C6FAE989F820400042
S113523801F0C1FA002000F0FAFA6A462100203190
S1135248072000F06DFE68460188E620400001F062
S1135258B2FA6A4621002131072000F061FE68464F
S11352680188F220400001F0A6FA698AFC20400077
S113527801F0A1FA2988E820400001F09CFA2000F6
S11352880C3000F027FC20000C3000F00DFC00F07E
S113529845FB298BB82001F08EFA698BBC2001F0FC
S11352A88AFAA98BC42001F086FA3F20FFF71AFF77
S11352B807219320C00001F07EFA5421002001F058
S11352C87AFAE02000F08BF8E82000F088F8F02063
S11352D800F085F80020FDF71CFF4634207861783B
S11352E809020143B34801F066FAE97DB24801F0C6
S11352F862FA80214900AC2001F05DFA0021832084
S113530880000FE710B5040060792179042901D1E0
S1135318C84900E049000143A07B042802DA0A00D6
S1135328C1001143607B40010843A1790A0202438A
S1135338E02189011143182001F03DFA21881C203D
S113534846E110B50400E02000F049F823785B1C1E
S1135358DBB222000021E02001F054FA10BD10B5A0
S11353680400E82000F03BF823785B1CDBB2220041
S11353780021E82001F046FA10BD80B540480178C4
S113538801220A4302703F480168080001D0012045
S113539888474021002001F00EFA0120FFF7A2FE01
S11353A801BD80B50120FFF7C0FE4121002001F0B6
S11353B802FA33480278FE2156E000008C0C0020E3
S11353C880B508E080B50B0002000021F82001F048
S11353D8F5F901BD80B5F82001F0EAF902BD38B548
S11353E804001025200001F0E3F96D1EFAD131BD47
S11353F810B50400607921794A000243A079C100FC
S11354081143302001F0D7F92188282001F0D3F97D
S113541861882C20DCE080B542782021302002F01D
S113542825FA1748017802220A43027015480168D0
S1135438080001D0012088474221002001F0BBF96F
S11354480220FFF74FFE01BD80B50220FFF76DFE75
S113545800222021302002F009FA4321002001F023
S1135468AAF907480278FD2111400170054802682D
S1135478100003D0080000D00120904701BD0000AF
S1135488A70C0020640C002020FCFF1F10B50400AA
S1135498207E6279520002432079C00010434901FA
S11354A80143482001F087F92188402001F083F95D
S11354B8618844208CE070B50C0015001E000100C2
S11354C8B02001F078F92100E920800001F073F997
S11354D82900EA20800001F06EF93100EB208000F9
S11354E801F069F96C43A1B2EC20800001F063F982
S11354F870BD10B50C000100B02001F05CF921006A
S11355088620400064E010B50C000100B02001F0D2
S113551852F92100822040005AE038B50C001500E9
S11355280100B02001F047F92100842001F043F97B
S113553829008020F6E510B50C000100B02001F028
S11355483AF921008420400042E080B50100B020EF
S113555801F031F9012205E080B50100B02001F025
S11355682AF9002220218E20400002F07FF901BD93
S113557880B55D48017804220A430270B548016881
S1135588080001D0012088474421002001F013F9C4
S11355980420FFF7A7FD01BD80B50100B02001F08C
S11355A80AF94521002001F006F94F480278FB2149
S11355B85AE70000140A0000180A000010B5040095
S11355C82100B02001F0F7F82002702101430020E7
S11355D801F0F1F810BD10B504002100B02001F06D
S11355E8EAF820027121F1E710B50C000100B0209F
S11355F801F0E1F88021214394204000E8E7F2B566
S1135608060017001C00084602F00FF905003100D7
S1135618B02001F0D0F83002B9000143214328003A
S113562801F0C9F8B5486946097840188455F1BDB0
S11356380000000002040000F8B507000E00140082
S11356481D0000F009F8069B2A00002101F0F2F879
S1135658AE488019C455F1BD10B50C000100B02046
S113566801F0A9F8A001C021C900401880B210BDFA
S113567810B50C000100B02001F09DF8210096201F
S11356884000A5E710B50C000100B02001F093F824
S11356982100942040009BE738B505000C00FFF773
S11356A8F1FF21002800FFF7E3FF31BD814201D358
S11356B8081A02E0964A101A401880B2704710B5CA
S11356C803000020994201D3C91A02E0904CE31A5E
S11356D8591889B280231B02994201DA914200D2F7
S11356E8012010BD00000000A70C002010B50C001C
S11356F80100B02001F05FF89220400001F058F852
S113570802222100FFF7DBFF10BD10B50C000100D9
S1135718B02001F050F89220400001F049F8001937
S113572880B210BD80B50100B02001F044F8922089
S1135738400051E610B50C000100B02001F03BF820
S11357486078010220780143882001F034F8E07879
S11357580102A07801438C2001F02DF86079010240
S113576820790143902033E738B504000D00210067
S1135778B02001F020F829008C20400001F01BF82B
S113578820024B2101430020CCE4F8B58824537847
S11357981E0213781E43D3781D0293781D43537950
S11357A81F0212791743002900D098240100B02061
S11357B801F001F83100200000F0FDFF2900201D50
S11357C880B200F0F8FF39000834DEE038B5140080
S11357D88825002900D098250100B02000F0EBFFAF
S11357E8280000F0E5FF2070000A6070281D80B2D0
S11357F800F0DEFFA070000AE0700835A8B200F0DF
S1135808D7FF2071000A607131BD38B504000D005E
S11358182100B02000F0CFFF691E89B28C2040001F
S113582800F0C9FF20024C21014300207AE480B52E
S11358383849C022504308188830FF21417001704C
S1135848002181703448418D8E20400002F024F8F4
S113585801BD0000640C002010B504002100B02034
S113586800F0A9FF2B48C021614340188830FF216C
S113587841700170002181700022200000F0F4F9C9
S113588810BD80B52349C022424389188831FF22BC
S11358984A700A7000228A70002100F0E5F901BDFF
S11358A880B580214901884200DB481E0100B020F0
S11358B807E080B580214901884200DB481E0100C9
S11358C8B220400000F077FF01BD80B500024D21F1
S11358D801430020F6E738B50C000100B02000F0C1
S11358E86AFF8E256D00280000F062FF574A0240C7
S11358F8A10111432800FFF715FC0000440C002007
S113590880B5B02000F054FFC0B202BD3C0C0020AA
S1135918FFFF0000B004002020FCFF1F80B5002119
S11359287C2000F048FF0021782000F044FF742117
S11359380020C7E7F8B504000E0017000125A540AC
S11359480122A9B27C2001F091FF3200A9B278208B
S113595801F08CFFF8780602B878064378790502D6
S1135968387905430C204443D020800024187878E3
S1135978010238780143A0B200F01DFF241D310054
S1135988A0B200F018FF2900241DA0B200F013FFF4
S1135998F1BD80B500220121814089B27C20E4E573
S11359A8F1B586B0FF206A461071487800020A787B
S11359B810430490C87800028A7810430390487909
S11359C800020979084302907C2000F0F1FE694640
S11359D8C880782000F0ECFE07007421002000F055
S11359E8EAFE0024012501E0641CE4B2AB48007817
S11359F8844226DAD020800000F0DAFE0600D020A7
S1135A08800000F0D5FE049A724003994140114386
S1135A180091029ED020800000F0CAFE4640009902
S1135A280E43E1D10120A0406946C9880842DBD071
S1135A386846007E3900E14029408842D4D168464E
S1135A4804716846007907B0F0BD0000BFFF00008C
S1135A5810B5FF247C2000F0ABFE0021A34A00E02F
S1135A68491C3823D35CC9B2994204D20300CB4001
S1135A78DB07F5D40C00200010BD000010B50400AD
S1135A886078010220780143682000F094FEE078F1
S1135A980102A07801436C2000F08DFE60790102B8
S1135AA820790143702093E510B504006078010261
S1135AB820780143582000F07EFEE0780102A078A7
S1135AC801435C2000F077FE6079010220790143EC
S1135AD860207DE510B50400607801022078014358
S1135AE8E020400000F067FEE0780102A07801435E
S1135AF8E220400000F05FFE607901022079014352
S1135B08E420400064E570B50400682000F050FE0D
S1135B1806006C2000F04CFE0500702000F048FEE2
S1135B282670310A6170A570290AE1702071000A93
S1135B38607170BD10B50400012906D1482000F039
S1135B4837FE8107C90F217010BD182000F030FE00
S1135B58C00B207010BD34B505000C000022694646
S1135B680C2000F0DDF9A802E10101436846007841
S1135B78014389B2B820400000F01DFE994801781D
S1135B8808220A43027098480168080001D00120DD
S1135B98884746210020FFF7C5FA01B50022694667
S1135BA80D2000F0BDF968460178B820400000F0E7
S1135BB802FE8C48017808220A4302708A48016868
S1135BC8080001D001208847472100207AE610B553
S1135BD84821002000F0EFFD82480278F7211140A7
S1135BE8017081480268100003D0080000D0012029
S1135BF89047B8246400200000F0DAFD4006FAD487
S1135C08002200210E2000F08BF9BA20400000F099
S1135C18CFFD10BD80B50B0002000021F0208000EC
S1135C2800F008FE01BD80B57F4908884880FFF769
S1135C387CFA01BD80B57C484088FFF753FA01BD62
S1135C4838B50C000100B02000F0B5FD8E256D00BC
S1135C58280000F0ADFD754A024022438021490026
S1135C6811432800FFF75EFA70B50E001400010016
S1135C78B02000F0A0FD8E256D00280000F098FDEE
S1135C886A4A024032436A491140002C02D1080092
S1135C9810214140280000F08EFD70BD58FCFF1F04
S1135CA810B50C000100B02000F085FD200001F0C3
S1135CB8BCFD0021FFF78CFC80B5C820FFF78CFBE6
S1135CC838B50D0004002100B02000F074FDA800D0
S1135CD8052101F0C4FA81B2564800F06CFD200297
S1135CE8722101430020FFF71DFA000020FCFF1F6A
S1135CF810B504002100B02000F05DFD20027321DE
S1135D08FFF764FCF8B50C0017001D000100B02073
S1135D1800F051FDF420400000F04AFD0600802008
S1135D28400000F045FD20808420400000F040FD44
S1135D3838808220400000F03BFD28807007400F27
S1135D4806990870F1BD38B50400A1252D01280075
S1135D5800F02EFD012C02D10121014301E0364956
S1135D680140814202D0280000F025FD31BD10B564
S1135D780C000100B02000F01EFD21002F48FFF7A1
S1135D8827FC10B50400182000F012FD2C4A02402C
S1135D986007810C11431820FFF71AFC10B50400A2
S1135DA8182000F005FD8004400F207010BD10B5C8
S1135DB8040200290ED10100B02000F0FCFC0021EF
S1135DC8A220000100F0F7FC00211E4800F0F3FCBB
S1135DD8762104E00100B02000F0EDFC7521214398
S1135DE8FFF7F5FBA70C0020640C002070B50C002D
S1135DF8160005002900B02000F0DDFC2100A220D7
S1135E08000100F0D8FC31000E4800F0D4FCC02199
S1135E1809020820FFF769F92802752101430020C7
S1135E2800F0C9FC70BD00008C0C0020F0FF0000DD
S1135E38FFFE0000040A0000FEFF00001C0A000028
S1135E48FFC70000240A000010B50400080000F091
S1135E585FF92060002801D1052010BD002010BD85
S1135E6880B500E080B500F08BF9002800D005204B
S1135E7802BD10B50400242000F04AF9206000286F
S1135E8801D1052010BD002010BD80B5EBE710B589
S1135E980400242000F03CF92060002801D10520EA
S1135EA810BD002010BD80B5DDE710B5040020202A
S1135EB800F02EF92060002801D1052010BD002033
S1135EC810BD80B5CFE710B50400202000F020F9FC
S1135ED82060002801D1052010BD002010BD80B528
S1135EE8C1E710B50400402000F012F92060002832
S1135EF801D1052010BD002010BD80B5B3E730B531
S1135F0800224B1E05E0845CC55C8554C454521CB5
S1135F185B1E4C08A242F6DB30BD08070700FFFFF2
S1135F2810B50B001400401E08282BD801A1095CE9
S1135F388F4400BF0A101C262A3038424A0000F059
S1135F4854F810BD59681868C0B200F01CF818E07D
S1135F58187800F033F8206010BD188809E000F0C4
S1135F6891F806E0188840B2C0460AE0187800F0B4
S1135F787DF8208010BD187800F070F801E03E48E4
S1135F880078207010BD70B504000D000902090CDA
S1135F98DA20400000F00FFCD62676002002EAB290
S1135FA80243802109021143300000F004FC300050
S1135FB800F0FEFB8005FAD5002070BD38B5D62464
S1135FC864000102200000F0F6FB200000F0F0FB62
S1135FD88005FAD5DA20400000F0EAFB050220002B
S1135FE800F0E6FBC0B2284332BD38B5234D28780B
S1135FF8C100D82000F0DFFB2800663081780C024D
S113600800780443298CC820400000F0D4FB698C34
S1136018CC20400000F0CFFB21009620800000F047
S1136028CAFB002400201649401C80B28842FBD1D8
S1136038600028186A30018880221202914209D02F
S11360487F29018F008803DAC0B2FFF79CFF01E0C3
S113605800F0B1FB641C1C2CEADB31BD07490007C6
S1136068000F08185430007840B2704703490007FD
S1136078C00E0818808E7047ABFBFF1F44FBFF1F40
S1136088FFFF000080B5A420000100F091FB02BDD1
S1136098F8B5504F4E4E504C0020388201E010366F
S11360A83F1DBD78F8780006000C0543EDB22900C1
S11360B8300001F043FF11E02100300001F044FFFB
S11360C8E6604448008A401C424908823878797856
S11360D80906090C0843241810346D1EEDB2002D6E
S11360E8EAD1387879780906090C0843B073000AAC
S11360F8F073387979790906090C08433073000A72
S11361087073307B717B0906090C0843C7D1F2BD53
S1136118F8B504002F4F31483D18012002F0B9F8B2
S113612800E01035002C26D0A87BE97B0906090C71
S11361380843A04219D3280001F02CFF060008D018
S1136148388A401E3882012002F0AAF8103630003E
S1136158F2BD287B697B0906090C0843A0420AD3CF
S11361682C7B687B0006000C0443287B697B0906AA
S1136178090C0843D5D1012002F092F80020F2BDA1
S113618838B5040022D0012002F083F8103CE068FE
S11361981049124A8A1800E0103290420DD1A268C0
S11361A8002A10D10A8A521C0A82210001F0CCFE6E
S11361B8012002F075F8002032BD137B557B2D06B3
S11361C82D0C2B43E8D1012002F06AF8032032BDDC
S11361D894F5FF1FC0F0FF1FD4F0FF1FD404000084
S11361E880B5103901F0B0FE02BD80B501F0D2FED1
S11361F8002800D0103002BDF8B50600012002F0D6
S113620848F800BF6AA7380000F098F80400250091
S1136218012002F045F8002D01D10020F2BDF1B2B1
S1136228201D01F0F8FE38E038B504000D00210007
S11362385FA000F095F8002801D1012032BD2900A3
S1136248201D01F0EBFE32BD10B50400210000BF93
S113625857A000F085F8002801D1012010BD201DA9
S113626801F00DFF10BD0000F8B50600012002F092
S113627810F800BF51A7380000F060F804002500AA
S1136288012002F00DF8002D01D10020F2BD711E8D
S11362988941C90F201D01F046FF00280AD00120BA
S11362A801F0F7FF2900380000F06DF8012001F033
S11362B8F7FF00252800F2BD38B504000D002100C1
S11362C83EA000F04DF8002801D1012032BD29007C
S11362D8201D01F07BFF32BDF8B505000E00140047
S11362E81F00290035A000F03BF8002801D1012047
S11362F8F2BD220000D00122069800903B00310034
S1136308281D01F019FFF2BD00B585B001F0CFFFDB
S113631804A8039000200290019007200090002315
S11363288022D2001FA1044801F05EFF01F0DDFFC6
S1136338002005B000BD00004118010001000868F4
S1136348002202E0521C4B68C0188B689A4205D29E
S11363580368002BF6D101210160704700207047C3
S113636810B50268002302E05B1C446812198468B3
S1136378A34206D28A42F7D11068002801D001202E
S113638810BD002010BD30B502680023002402E0CF
S1136398641C456852198568AC4202D28A42F7D116
S11363A8136030BD6D61696E5F7461736B000000CA
S11363B8780B0020100000000100000008080020ED
S11363C81C0000000400000070B53F48C478200099
S11363D801F076FB0500200001F08FFC06002E4337
S11363E82000FBF75DFE304370BD70B536488478F5
S11363F8200001F05CFB0500200001F075FC06009C
S11364082E432000FBF74DFE304370BD2F487047E4
S113641810B52D492E4A8A60002283189B78002BD8
S113642801D08C182372521C042AF6DB8868FF22D8
S11364389A325043886000F005F8FBF7FBFC01280A
S1136448F9D110BD10B5FFF737FC01001E4A90685A
S113645848404108C30744075C4003076340840677
S11364685C40604080231B0618400843906010BDC0
S113647880B501F0DDFF0002000A02BD10B501F08D
S1136488D7FF0400FBF7D6FC0128F8D1200010BD83
S113649880B56A4600210920FFF742FD6846007866
S11364A802BD80B501F0C4FF009000216846405C3D
S11364B8C006C00E421F0C2A00D202BD491CC9B234
S11364C80429EFDAF2E70000B0040020880700206E
S11364D80403020138B50D001900059C2070030A55
S11364E86370030CA370000EE0706806400ED201BE
S11364F8024322710422601DFDF7EAF9042204997B
S113650809342000FDF7E4F931BDFEE74018C00363
S1136518000C704780B5FFF7F9FF02BD10B5040001
S113652808007A4900F098FEC01C21005C310A88F2
S113653880B2824200D810005200101AC8807448F1
S1136548427800781302034305D0CC88A34202DAC8
S113655812020243CA8010BDF8B505006D48C02177
S1136568694344182034807B002811D127005A3706
S113657878884600FFF7A0FB82190092001DB1B28B
S113658800F06AFE009A501A001D3988401A2080CB
S11365982800F2BDF4B506000C00002A2CD01746DA
S11365A85D480078002801D107E07F08F80704D582
S11365B87810864201DA0C2FF7DA3000390000F03F
S11365C84BFE05003000390000F046FE002900D0DB
S11365D86D1C7D43ADB2AC4200D235002000694643
S11365E8098800F039FE010068460088414389B2F1
S11365F8A94202D2210000E0350028040843F2BD74
S1136608F8B517001E00FFF7C5FF0400050C002E9F
S113661813D03A0006993000FFF7BCFF0100000CC4
S1136628854202D2A4B2844200D2280089B2A4B21C
S1136638A14203D2A94202D200E0280021000004AA
S113664889B20843F2BD0023012A01D1030002E004
S1136658002A00D10B001800704710B50400080088
S1136668002C02D0012C04D00DE000280ED1042007
S113667810BD5900891E89B2814207D310008A428D
S113668804D9080002E010180004400C022800DABB
S1136698022010BD10B55E21415A0A01541A103463
S11366A88078FFF73FF8A1B2401880B210BDF8B562
S11366B804000D001700002B21D0069E00222100A3
S11366C81846FEF7FCFF01280CD168460188200013
S11366D8FEF7ECFF7843801980B2290000F0BCFD76
S11366E8080010E0210068460088FEF7DFFF7843C1
S11366F8801B80B2290000F0AFFD681A03E028006F
S1136708062100F0A9FD80B2F2BD0000710200006C
S113671862FCFF1FB0040020AD0C0020002391424E
S113672804D0002802D0824200D303001800704726
S1136738F8B582B0140050300500491C89B2288885
